:020000040800F2
:10000000C009002459030008D9370008D137000877
:10001000D5370008491600082D49000800000000E7
:10002000000000000000000000000000F53800089B
:100030008116000800000000DB370008CD3A0008F8
:1000400073030008730300087303000873030008B8
:1000500073030008730300087303000873030008A8
:100060007303000873030008730300087303000898
:100070007303000873030008730300087303000888
:100080007303000873030008730300087303000878
:100090007303000873030008730300087303000868
:1000A0007303000873030008730300087303000858
:1000B0007303000873030008730300087303000848
:1000C0007303000873030008730300087303000838
:1000D000730300083D4800088D480008DD4800080B
:1000E0007303000873030008000000007303000896
:1000F0007303000873030008730300087303000808
:1001000073030008730300087303000873030008F7
:1001100073030008730300087303000873030008E7
:1001200073030008730300087303000873030008D7
:1001300073030008730300087303000873030008C7
:1001400000000000000000000000000000000000AF
:1001500073030008730300087303000873030008A7
:100160007303000873030008730300087303000897
:100170007303000873030008730300080000000005
:100180007303000873030008730300087303000877
:100190007303000873030008730300087303000867
:1001A0007303000873030008730300087303000857
:1001B0007303000873030008730300087303000847
:1001C0007303000873030008730300087303000837
:1001D0007303000873030008730300087303000827
:1001E0007303000873030008730300087303000817
:1001F0007303000873030008730300087303000807
:1002000073030008730300087303000873030008F6
:1002100073030008730300087303000873030008E6
:100220007303000873030008730300080000000054
:100230007303000873030008000000007303000844
:1002400073030008730300087303000873030008B6
:1002500073030008730300087303000873030008A6
:100260007303000873030008730300087303000896
:100270007303000873030008730300080000000004
:100280007303000800000000730300080000000072
:10029000000000007303000800F002F800F04CF8C2
:1002A0000AA090E8000C82448344AAF10107DA45D1
:1002B00001D100F041F8AFF2090EBAE80F0013F0D7
:1002C000010F18BFFB1A43F001031847984F0000B5
:1002D000B84F0000103A24BF78C878C1FAD8520746
:1002E00024BF30C830C144BF04680C6070470000B0
:1002F0000023002400250026103A28BF78C1FBD82F
:10030000520728BF30C148BF0B607047662904F010
:100310002A86642900F0EC80002070471FB504F0A5
:100320001DFE00F023FC04000020002104F000FE6C
:10033000E0601FBD10B510BD00F030FD1146FFF7A5
:10034000EDFF04F07FFC00F04EFD03B4FFF7F2FF79
:1003500003BC04F02AFC0000094880470948004714
:10036000FEE7FEE7FEE7FEE7FEE7FEE7FEE7FEE765
:10037000FEE7FEE704480549054A064B70470000C2
:10038000D53A000899020008C0030024C0090024DF
:10039000C0050024C005002453EA020C00F0698067
:1003A0002DE9F04B4FF00006002B1FBFB3FA83F589
:1003B00003FA05F424FA05F65E4012BF1643B2FABA
:1003C00082F502FA05F4C5F120051EBF22FA05FCEC
:1003D00044EA0C04203556EA044C4FEA144418BF92
:1003E000641C4FF000084FF00009904271EB030CC1
:1003F00039D3002919BFB1FA81F701FA07F6B0FA2B
:1004000080F700FA07F6C7F120071EBF20FA07FCA5
:1004100046EA0C062037B6FBF4FCA7EB0507103FB5
:1004200007F01F0BCBF120060CFA0BFB2CFA06F69B
:1004300044BFB3460026202FA4BF5E464FF0000BFA
:100440005BEA060C08BF4FF0010B19EB0B09ABFB85
:10045000027C48EB0608C01B06FB02CC0BFB03CC5E
:1004600071EB0C01C1E70B46024641464846BDE828
:10047000F08B13B54FF000004FF00001AFF3008098
:10048000BDE81C40704700000FB4044910B503AA32
:10049000029800F059FB10BC5DF814FB0C0000241E
:1004A00070B5044685690068C10601D5302600E0B4
:1004B0002026C00707D070BDD4E9012130469047FF
:1004C000206A401C20626D1EF6D570BD70B50446D2
:1004D00085690078C00707D170BDD4E901212020CB
:1004E0009047206A401C20626D1EF6D570BD00004A
:1004F0002DE9F0410646002410687529314616A5FD
:1005000010D0AFF30080002802DA404213A507E0C4
:1005100031688A0701D512A502E0490704D511A563
:10052000012401E0AFF3008000210A2206F1240734
:1005300009E0B0FBF2FCB0FBF2F302FB1C00303030
:1005400078541846491C0028F3D123462A463046E1
:10055000BDE8F04100F092B8000000002D0000005E
:100560002B000000200000002DE9F0474FF0000AAA
:1005700089460446C0F820A02046E1688847002844
:1005800076D0252806D0D4E901219047206A401C66
:100590002062F1E7E168204600258847C4F81CA0E6
:1005A00006460027C4F818A02A2E09D0304604F0C9
:1005B000F5FA38B304EB8708303EC8F8186019E044
:1005C00059F8041B204604EB87029161E1688847D3
:1005D000012F064618D1E069002820DA25F0200511
:1005E0001DE0D8F8180000EB800006EB4000303822
:1005F000C8F818002046E1688847064604F0CEFA9D
:100600000028EED1012F0AD02E2E08D12046E16815
:1006100088477F1C0646022F45F02005C4DBA069F1
:10062000002803DA404245F00105A061E80701D047
:1006300025F01005B6B1A6F14100192802D82036E0
:1006400045F400654A463146204625604D46FFF791
:100650005DFE58B1012806D0ED1D25F0070000F120
:10066000080989E704E005F1040985E730468AE7CF
:10067000206ABDE8F0877047704770472DE9F04762
:100680000D4699469246044600F124080168880602
:1006900004D5E06921F01001216000E00120A842AA
:1006A00001DD471B00E00027A1697A1902EB090070
:1006B000081AA0612078C00602D42046FFF7F0FE99
:1006C000002608E0D4E901211AF806009047206AC4
:1006D000401C761C20624E45F4DB2078C0060AD50B
:1006E0002046FFF7DDFE06E0D4E9012130209047E7
:1006F000206A401C2062381EA7F10107F4DC07E0E5
:10070000D4E9012118F805009047206A401C2062B6
:10071000281EA5F10105F3DC2046FFF7D7FE20785F
:10072000000602D50220BDE8F0870120FBE77047F4
:100730002DE9FF4F0C461E464FF0FF378BB0D2E934
:100740000001DDF860800A908A46C1F30A5505B9B8
:100750003D46002108464FF00000BAF1000F00F4BA
:10076000400005DA00EB80004FF4400101EA500040
:100770004FEA9059B9F1010F00DDB9460A9850EAE5
:100780004A000ED044F61050A5F2FF3545432F1411
:10079000B8F1000F1ED07542291E1EDDC9F10002FE
:1007A0001CE0B8F1010F4FF0000001D0302103E050
:1007B000F24305E02154401CB042FBDB30460022EE
:1007C000002121540B99C1F80880C1E900200FB025
:1007D000BDE8F08FBD1B6D1CDEE74A4600DA6942BA
:1007E00006A800F065FA06AB93E8070003AB83E8C0
:1007F000070050460A9900F033FB8DE80700A0F58A
:1008000000501F3800900398002D09DD42F21F01AF
:100810004A46084403A90390684600F092FD08E0A8
:10082000A0F500504A461F3803A90390684600F01F
:100830009CFD8DE807000004000C03D04FF0FF3052
:10084000410800E01046B8F1000F03D000220092EA
:1008500015461EE0751E05D400F08CF93032625545
:100860006D1EF9D5B3460122084302D000227F1C39
:1008700004E02078302801D100227F1E002A099749
:1008800086D01DE0112D07DA00F074F93032625580
:100890006D1C50EA0102F5D1084302D00098C8B19E
:1008A0000EE00021681E05E0235C625C6354225464
:1008B000401E491C8142F7DBAB46A81B401E099035
:1008C000002004F80B000B98099AC0F80880C0E9D2
:1008D000002B7CE711264FF0000859E72DE9F04F77
:1008E00088460446D21D22F0070191B0D1E90001EB
:1008F000CDE90A0104F01EF902460B98C00F01D0A1
:100900002D2007E02068810701D52B2002E020215F
:1009100001EAC000032A099001D0072A05DB03463B
:100920004146204600F084F90BE12078800601D58D
:10093000E06900E00620B8F1650F814606D0B8F105
:10094000660F18D0B8F1670F70D131E00020B9F10F
:10095000110F009001DB112301E009F101030AAA44
:1009600001A90CA8FFF7E4FEDDE90C70002609F1EF
:100970000105834647E001204B4600904FF00047B9
:100980000AAA01A90CA8FFF7D3FEDDE90DB00C9966
:100990005D46002610B909F101000D18B9EB0500FC
:1009A00003D4C0F1FF3609F10105A5EB09002BE0E6
:1009B000B9F1010F01DA4FF001090020B9F1110F6F
:1009C0000090484601DD112300E003460AAA01A970
:1009D0000CA8FFF7ADFEDDE90C704D4600268346FE
:1009E000207800070AD4AB4500DA5D4601A8012D46
:1009F00004DD411911F8011C302907D04F4502DAF6
:100A000017F1040F04DA012082460FE06D1EEEE7B5
:100A1000002F02DCED1B3E4403E0781CA84200DD01
:100A20007D1CB81B00F1010A4FF000472078000739
:100A300003D4AA4501DB4FF0FF3A0021B7F1004F84
:100A40000DF143088DF8431024D002202B23002FF2
:100A500001DA7F422D230A21021EA0F1010000DCF1
:100A60005FB197FBF1FC97FBF1F201FB1C7C174691
:100A70000CF1300C08F801CDEEE7A8F1010003708D
:100A80002188090501D5452100E06521A0F1010873
:100A900000F8011C09980FA9A1EB0807FF1D00B180
:100AA0000120411901EBEA70A1693844081A401E7F
:100AB000A0612078C00602D42046FFF7F1FC099817
:100AC00028B1D4E901219047206A401C2062207897
:100AD000C00622D52046FFF7E3FC1EE0002E04DB13
:100AE000B34502DD01A8805D00E03020D4E901219A
:100AF0009047206A401C2062761CAAF101005FEA40
:100B0000000A0AD100F032F8C0680168405CD4E9FC
:100B100001219047206A401C2062281EA5F1010592
:100B2000DCDC07E0D4E9012118F8010B9047206ACA
:100B3000401C2062381EA7F10107F3DC2046FFF7B6
:100B4000C5FC032011B043E6074B70B50D467B444E
:100B500000F05BF80446284600F018F910B14FF099
:100B6000FF3070BD204670BDD74000000048704780
:100B70007C03002430B5B0F10A024FEA900E71F107
:100B800000034EEA817EB0EB0E0061EB91014FEA6B
:100B9000101E4EEA017E10EB0E0041EB11114FEAE0
:100BA000102E4EEA016E10EB0E0041EB11214FEAC0
:100BB000104E4EEA014E10EB0E0041EB1141401871
:100BC00041F100014FEAD00040EA41704FEAD10103
:100BD00010EB80054FEA810444EA907444EB010471
:100BE0006D1944EB0404521BA3414FF0000348BFAE
:100BF0000A3200D530BD401C41F1000130BD00007B
:100C000001694A1C02610878704700B58FB0CDE9D0
:100C100001310021059105497944CDE903101146C0
:100C20006846FFF7A1FC0FB000BD0000E5FFFFFF25
:100C30002DE9F0411F46044603260168072A01F406
:100C4000006004DB08B116A505E016A503E008B1B5
:100C500015A500E015A521F010002060A069C01EB8
:100C6000A0610FB1401EA0612046FFF719FC4FB1F3
:100C7000D4E9012138469047206A401C2062C01CFC
:100C8000206206E0206AFAE7D4E9012115F8010B99
:100C90009047761EF8D22046FFF718FCBDE8F08199
:100CA0004E414E006E616E00494E4600696E660010
:100CB0002DE9F047814616468AB0334878440DC87E
:100CC0008DE80D0030487844801C03AC0DC884E8E2
:100CD0000D0041F69B300844372190FBF1F290FB68
:100CE000F1F5A5F1800501FB12041B3C02D564421D
:100CF000012000E00020DFF890A080460027FA44A1
:100D0000AAF1BE0A0DE0E00709D03246684607EBBB
:100D100047010AEB810100F028FB8DE80700641011
:100D20007F1C002CEFD1184F7F44AC3F18E0E80740
:100D300014D007EB04100DF1180A90E80E008AE8B1
:100D40000E00C068F04201D198190890324606A9F9
:100D500003A800F00AFB03AB83E807006D10641CD6
:100D6000002DE4D132466946B8F1000F03A802D045
:100D700000F0E7FA01E000F0F8FAC9E90001C9F86B
:100D800008200AB0BDE8F08798430000007B00F01F
:100D900080007047004870475C0300247546FFF7E9
:100DA000F9FFAE4605006946534620F00700854628
:100DB00018B020B5FFF7DEFABDE820404FF000067E
:100DC0004FF000074FF000084FF0000B21F0070133
:100DD000AC46ACE8C009ACE8C009ACE8C009ACE876
:100DE000C0098D46704710B50446AFF30080204619
:100DF000BDE81040FFF7A9BA4FF0013C50F8042BB2
:100E000051F8043B9A4215D1A2EB0C03934313EA29
:100E1000CC130BD150F8042B51F8043B9A4209D162
:100E2000A2EB0C03934313EACC13E7D04FF000007E
:100E3000704700BFD01A01BAB1FA81F101F0180170
:100E400022FA01F0CB40C1F12001DBB2C0B2C01ADE
:100E50002CFA01F3D11A914311EAC311E6D170477C
:100E60005FEA400C08BF91F0000F4FEA8C234FEA75
:100E7000C12243EA51514FEA1C5018BF00F5F0401F
:100E80004FEA300018BF41F000415FEA6C5C00F0AF
:100E90002980BCF1FF3F08BF40F080407047130C31
:100EA00006BF12044FF0100C4FF0000C130E04BFDD
:100EB00012020CF1080C130F04BF12010CF1040C08
:100EC000930F04BF92000CF1020CD30F04BF520029
:100ED0000CF1010C11464FF00002A0F11F00A0EB35
:100EE0000C00704711F0004F08BF704731F000410F
:100EF0003FF4D5AF0B0C06BF09044FF0100C4FF0B8
:100F0000000C0B0E04BF09020CF1080C0B0F04BF00
:100F100009010CF1040C8B0F04BF89000CF1020CC9
:100F2000CB0F04BF49000CF1010CCCF12003A0EB66
:100F30000C0022FA03F302FA0CF241EA030100F179
:100F40000100704720F07F4C80EA030023F07F47C8
:100F5000ACEB070303F57C5300F0004003F1FF0303
:100F60002DE980494FEA154B09B44FEA144325EAAD
:100F70000B4E24EA03480FF2042606EB1327490818
:100F80003E785FEA320203FB0667C7F5000707FBFE
:100F900006F64FEA54374FEAD64606F1020607FB3B
:100FA000066CCCF1005C4FEA1C472CEA074C07FBAF
:100FB00006F40CFB06F504EB15464FEA961634BF13
:100FC00000204FF000404FEAD13706FB07FC4FEA04
:100FD0001C4C0CFB0BF7D21B03FB0CF761EB07015E
:100FE0000CFB0EF7B0EB074072EB17420CFB08F757
:100FF00034BFA2EB0742B2EB074261EB17414FEA65
:101000000C444FEA910706FB07FC4FEA1C4C0CFB13
:101010000BF7B0EBC74072EB573203FB0CF734BF52
:10102000A2EBC742B2EBC74261EB57310CFB0EF7A4
:10103000B0EBC70072EB57720CFB08F734BFA2EBA2
:10104000C702B2EBC70261EB5771039F4FEA8161A0
:1010500041EA921104EBCC044FEAD1374FEA8262A5
:1010600006FB07FC42EA90124FEA80604FEA1C4CF4
:101070000CFB0BF7D21B03FB0CF761EB07010CFB1E
:101080000EF7B0EB074072EB17420CFB08F734BFCA
:10109000A2EB0742B2EB074261EB17414FEA8C55D6
:1010A0004FEA910704EB9C2406FB07FC4FEA1C4C1B
:1010B0000CFB0BF7B0EBC74072EB573203FB0CF79E
:1010C00034BFA2EBC742B2EBC74261EB57310CFB16
:1010D0000EF7B0EBC70072EB57720CFB08F734BF8A
:1010E000A2EBC702B2EBC70261EB577115EB4C25BF
:1010F0004FEA816141EA92114FEA82624FEAD137A9
:1011000042EA901206FB07FC44F100044FEA8060BB
:101110004FEA1C4C0CFB0BF7D21B03FB0CF761EBEB
:1011200007010CFB0EF7B0EB074072EB17420CFB0C
:1011300008F734BFA2EB0742B2EB074261EB17415D
:1011400015EB1C154FEA813141EA92414FEA823298
:1011500042EA90424FEA80304FEA0C7644F10004B4
:1011600048EA03434EEA0B484FF0000EB2EB080C7E
:1011700071EB030724BF624639464EEB0E0E4FF06B
:10118000000B0018524149414BEB0B0BB2EB080C22
:1011900071EB03077BF1000B24BF624639464EEB2F
:1011A0000E0E4FF0000B0018524149414BEB0B0B58
:1011B000B2EB080C71EB03077BF1000B24BF624616
:1011C00039464EEB0E0E51EA020718BF46F00106F3
:1011D00016EB0E7655F1000254F1000103D5BDE87F
:1011E0008901BDE80088BDE88901BDE80048B6195D
:1011F000524141EB0101A3F10103704780807F7EE2
:101200007D7C7B7A7978777676757473727171707C
:101210006F6E6E6D6C6C6B6A6A696868676666652E
:101220006464636362616160605F5F5E5E5D5D5CBC
:101230005C5B5B5A5A59595858575756565555552D
:101240005454535352525251515050504F4F4F4E8D
:101250004E4D4D4D4C4C4C4B4B4B4A4A4A494949DB
:10126000484848474747474646464545454444441D
:10127000444343434342424242414141002B26D42E
:10128000770021D01CB54FEA370703B44FF01000A8
:101290004FF010014FF000000FBCBDE810400BF103
:1012A000010BBBF1010F08BF5FEA170722BF12F164
:1012B000010211F101014FF0004143F1000300F080
:1012C000004043EA00007047F9D35708DAE746EADE
:1012D000064613F1400F4FEA16461FDD13F1200FAB
:1012E000DFBF16430A46002120335B42C8D0C3F15A
:1012F000200746EA064602FA07F74FEA164646EA8C
:101300000706C3F1200722FA03F201FA07F721FAD0
:1013100003F14FF0000342EA0702B1E746EA020692
:1013200046EA06464FEA164646EA0106BCBF46EACA
:101330000646360C4FF000034FF000024FF000015C
:101340009EE72DE9C048934630B491E8380007C8BD
:1013500031EA400C48BF34EA430C03D5FFF7F2FDF5
:10136000FFF78CFFF0BCBDE800882DE9C04893462C
:1013700030B491E8380007C810F0804F08BF13F070
:10138000804F03D100F005F8FFF778FFF0BCBDE80F
:10139000008820F07F4780EA030023F07F4C07EBB2
:1013A0000C03A3F57C5300F00040A3F1FE0392F080
:1013B000000F00F0B38095F0000F00F077802DE96A
:1013C00001494FEA11404FEA144621EA004800FB68
:1013D00006FC24EA064708FB06F607FB08F800FBB4
:1013E00007F718EB06484CEB164C4FEA124B18EB7C
:1013F00007484FEA15464CEB174022EA0B4E0BFB11
:1014000006FC25EA06470EFB06F607FB0EFE0BFB65
:1014100007F71EEB064E4CEB164C4FF000061EEB8A
:10142000074E4CEB174B18EB0B0840F1000018EB84
:101430000E0B58EB000840F100008F1A4FF000012E
:101440003CBFC943661B14BFB5EB040C00213CBF75
:10145000C943F61B4FEA17444EEA8E0E27EA0445AD
:101460004FEA1C4704FB07622CEA074C05FB07F711
:101470000CFB05F604FB0CFC16EB074642EB17428F
:1014800016EB0C4642EB1C421BEB060658EB020225
:10149000414146EA9E0601D5BDE80189B61952418F
:1014A00041EB0101A3F10103BDE801894FEA1445B5
:1014B0004FEA114724EA054621EA074C05FB07F4E9
:1014C00006FB07F70CFB06F105FB0CFC11EB0741D3
:1014D00044EB17444FEA124711EB0C4144EB1C4418
:1014E00022EA074C05FB07F206FB07F70CFB06F6A2
:1014F00005FB0CFC16EB074642EB174216EB0C46BD
:1015000042EB1C456A1854F1000148BF7047B619F8
:10151000524141EB0101A3F10103704795F0000F27
:1015200037D04FEA11424FEA144721EA024624EA33
:10153000074C02FB07F106FB07F70CFB06F402FB66
:101540000CFC14EB074441EB17414FEA154714EB31
:101550000C4441EB1C4125EA074C02FB07F506FB56
:1015600007F70CFB06F602FB0CFC16EB074645EBF7
:10157000174516EB0C4645EB1C42121951F10001C0
:1015800048BF7047B619524141EB0101A3F1010375
:1015900070474FEA14454FEA114724EA054621EA0D
:1015A000074C05FB07F106FB07F70CFB06F24FF0B3
:1015B000000605FB0CFC12EB074241EB174112EB56
:1015C0000C4251EB1C4148BF7047921841EB01019E
:1015D000A3F101037047000070B5FF2500241DE052
:1015E0000120A04081B20F4800F010FC58B101204A
:1015F000A04081B20B4800F009FC70B10120A0406E
:101600002843C5B209E00120A04081B2054800F09E
:10161000FDFB10B90120A0408543641C082CDFDBD2
:10162000284670BD0020025810B5044600221F2134
:10163000044800F0F3FB01222146024800F0EEFBD3
:1016400010BD00000018025800BFFEE710B50246AA
:10165000002002E012F8014B20440B1EA1F1010111
:10166000F8D110BD10B502F007F902F0B7F8034841
:10167000006840F004000149086010BD9CEF00E0E4
:101680007047000070B54FF0FF3500241CE00120CA
:10169000A04081B2214800F0B9FB50B10120A04028
:1016A00081B21E4800F0B2FB68B10120A0400543A2
:1016B00009E00120A04081B2184800F0A7FB10B952
:1016C0000120A0408543641C102CE0DB002421E0B5
:1016D0000120A04081B2124800F098FB68B10120BF
:1016E000A04081B20E4800F091FB90B104F11000CF
:1016F000012101FA00F005430BE00120A04081B276
:10170000074800F083FB20B904F11000012181405B
:101710008D43641C102CDBDB284670BD0010025882
:101720000014025800B587B000BFDA48006840F0E6
:101730000100D84908600846006800F001000190E7
:1017400000BF00BF00BF0846006840F0020008600C
:101750000846006800F00200019000BF00BF00BF13
:101760000846006840F0040008600846006800F081
:101770000400019000BF00BF00BF0846006840F0B1
:10178000080008600846006800F00800019000BFEB
:1017900000BF00BF0846006840F01000086008461F
:1017A000006800F01000019000BF00BF00BF0846B5
:1017B000006840F0200008600846006800F0200043
:1017C000019000BF00BF00BF0846006840F0400025
:1017D00008600846006800F04000019000BF00BFAC
:1017E00000BF0846006840F08000086008460068B6
:1017F00000F08000019000BF00BF00BF08460068F5
:1018000040F4807008600846006800F48070019021
:1018100000BF00BF2020029001200390049003200D
:10182000059002A99C4800F0CBF9012220219A489A
:1018300000F0F4FA4FF6FF7002900120039004903C
:101840000320059002A9954800F0BAF90022012171
:10185000924800F0E3FA00220221904800F0DEFAFC
:10186000002204218D4800F0D9FA002208218B487B
:1018700000F0D4FA00221021884800F0CFFA0022AC
:101880002021864800F0CAFA00224021834800F057
:10189000C5FA00228021814800F0C0FA00224FF4EE
:1018A00080717E4800F0BAFA00224FF400717B4844
:1018B00000F0B4FA00224FF48061784800F0AEFAEC
:1018C00000224FF40061754800F0A8FA00224FF49E
:1018D0008051724800F0A2FA00224FF400516F4884
:1018E00000F09CFA00224FF480416C4800F096FA18
:1018F00000224FF40041694800F090FA4FF6FF7063
:1019000002900120039004900320059002A96448EE
:1019100000F056F900220121614800F07FFA002210
:1019200002215F4800F07AFA002204215C4800F0AE
:1019300075FA002208215A4800F070FA002210219E
:10194000574800F06BFA00222021554800F066FA53
:1019500000224021524800F061FA002280215048C4
:1019600000F05CFA00224FF480714D4800F056FA06
:1019700000224FF400714A4800F050FA00224FF460
:101980008061474800F04AFA00224FF40061444861
:1019900000F044FA00224FF48051414800F03EFA32
:1019A00000224FF400513E4800F038FA00224FF474
:1019B00080413B4800F032FA00224FF400413848A1
:1019C00000F02CFA4FF6FF700290002003900120E7
:1019D00004900320059002A9324800F0F1F84FF678
:1019E000FF700290002003900120049003200590D6
:1019F00002A92D4800F0E4F84FF6FF700290012094
:101A0000039004900320059002A9284800F0D8F81C
:101A100000220121254800F001FA0022022123487A
:101A200000F0FCF900220421204800F0F7F9002220
:101A300008211E4800F0F2F9002210211B4800F096
:101A4000EDF900222021194800F0E8F90022402198
:101A5000164800F0E3F900228021144800F0DEF976
:101A600000224FF48071114800F0D8F900224FF4A1
:101A700000710E4800F0D2F9FF2002900020039080
:101A8000012004900320059002A9094800F098F86D
:101A900007B000BDE0440258000002580008025898
:101AA000000C025800100258001402580018025886
:101AB0000020025810B504460CB9012010BD94F85E
:101AC0003500022803D0802060650120F6E7344904
:101AD0002068884205D333492068884201D8012014
:101AE00000E00020C0B1042084F835002C492068B3
:101AF00088420AD32B492068884206D820680068AB
:101B000020F001002168086048E02068006820F0AB
:101B100001002168086041E02068006820F00E00A4
:101B2000216808601E49206888420AD31D49206840
:101B3000884206D82068006820F00100216808600B
:101B400005E02068006820F0010021680860206E30
:101B5000006820F48070216E086094F85C10012009
:101B6000884011490860D4E919104860E06E40B11E
:101B7000E06E006820F48070E16E0860D4E91C100B
:101B8000486000BF002084F8340000BF012084F8C2
:101B90003500206D10B12046216D884700208DE76B
:101BA00010000240B8040240045402580348006880
:101BB00040F001000149086070470000200400580F
:101BC000F8B502460B460021002600240020824D75
:101BD00000BFFCE0012707FA01F61F6807EA0604C8
:101BE000B4427CD15F68022F02D05F68122F1AD1F5
:101BF0004FEAD10C02F1200757F82C004F074FEAAB
:101C0000D76C0F2707FA0CF7B8434FEA417C4FEA2D
:101C1000DC6C1F6907FA0CF738434FEAD10C02F16C
:101C2000200747F82C0010684FEA410C032707FAF9
:101C30000CF7B8431F7907F003074FEA410C07FA86
:101C40000CF7384310605F68012F08D05F68022FDF
:101C500005D05F68112F02D05F68122F17D19068EE
:101C60004FEA410C032707FA0CF7B8434FEA410C3F
:101C7000DF6807FA0CF738439060506801278F40FF
:101C8000B8431F79C7F300178F4038435060D068BE
:101C90004FEA410C032707FA0CF7B8434FEA410C0F
:101CA0009F6807FA0CF73843D0605F6807F08057E9
:101CB000B7F1805F95D100BF484F3F6847F00207FA
:101CC000DFF818C1CCF8007067463F6807F00207DC
:101CD000009700BF00BF424F4FEA910C00E075E053
:101CE00057F82C008F074FEA177C0F2707FA0CF7DD
:101CF000B8433C4FBA4201D100272DE03A4FBA42D7
:101D000001D1012728E0394FBA4201D1022723E04F
:101D1000374FBA4201D103271EE0364FBA4201D1F4
:101D2000042719E0344FBA4201D1052714E0334F9C
:101D3000BA4201D106270FE0314FBA4201D107273D
:101D40000AE0304FBA4201D1082705E02E4FBA42CF
:101D500001D1092700E00A274FEA817C4FEA1C7C69
:101D600007FA0CF738431E4F4FEA910C47F82C0046
:101D70002868A0435F6807F48037B7F5803F00D13B
:101D8000204328606868A0435F6807F40037B7F510
:101D9000003F00D1204368604FF0B0473868A0434F
:101DA0005F6807F48017B7F5801F00D120434FF01C
:101DB000B04738607868A0435F6807F40017B7F54C
:101DC000001F00D120434FF0B0477860491C102914
:101DD000FFF400AFF8BD000080000058F444025842
:101DE0000804005800000258000402580008025875
:101DF000000C025800100258001402580018025833
:101E0000001C0258002002580024025802461369A0
:101E10000B400BB1012000E0002070470AB10183A4
:101E200000E04183704700000148006870470000EF
:101E30004400002403480068034909780844014924
:101E400008607047440000244C00002410B50320B3
:101E500000F07EF80F2000F007F808B1012010BD57
:101E600000F028F80020FAE770B504460E48007824
:101E70004FF47A71B1FBF0F00C490968B1FBF0F551
:101E8000284601F0DFF808B1012070BD102C07D200
:101E900000222146501E00F01EF80548046001E0B3
:101EA0000120F2E70020F0E74C00002400000024AD
:101EB00048000024704701460846002809DB00F06E
:101EC0001F0301229A4043099B0003F1E023C3F85A
:101ED000002100BF70472DE9F05F80460D46164691
:101EE00002F040FE074639462A46334601F0070015
:101EF000C0F1070ABAF1040F02D94FF0040A01E059
:101F0000C0F1070AD14600F1040ABAF1070F02D264
:101F10004FF0000A01E0A0F1030AD4464FF0010A95
:101F20000AFA09FAAAF1010A0AEA020A0AFA0CFAFA
:101F30004FF0010B0BFA0CFBABF1010B0BEA030B9F
:101F40004AEA0B042146404602F014FEBDE8F09F29
:101F500000BF00F00702064B19684FF6FF03194057
:101F6000044B0B4343EA0221014B196000BF704749
:101F70000CED00E00000FA0510B500F0CBFB0949BC
:101F8000096801F470614FF4807292FAA2F2B2FA19
:101F900082F2D140044A515CC840044908600846B6
:101FA000006810BD184402589A4F00080000002431
:101FB00010B500F067FB0749096801F070011022B5
:101FC00092FAA2F2B2FA82F2D140034A515CC840BE
:101FD00010BD0000204402589A4F000870B5014619
:101FE00000220120002300249FED811AB0EE410A57
:101FF0009FED7F1AF0EE410A7E4D2D6805F0030239
:102000007C4D2D68C5F305307A4D2D1D2D6805F0EA
:102010001003784D14352D68C5F3CC0515FB03F579
:1020200001EE105AB8EE411AB0EE410A22B1012A6F
:102030004DD0022A7DD169E06E4D283D2D68C5F353
:1020400040152DB36B4D283D2D68C5F3C1066A4D73
:1020500025FA06F4B4FBF0F501EE105AF8EE411A39
:102060009FED661A80EE012A624D10352D68C5F38A
:10207000080501EE105AB8EE411A32EE011AB7EE19
:10208000002A31EE021A21EE811AF0EE410A1DE01B
:10209000594DB5FBF0F501EE105AF8EE411A9FEDDF
:1020A000571A80EE012A534D10352D68C5F30805E7
:1020B00001EE105AB8EE411A32EE011AB7EE002ABC
:1020C00031EE021A21EE811AF0EE410A5EE04C4D2B
:1020D000B5FBF0F501EE105AB8EE412A9FED471A14
:1020E000C0EE011A434D10352D68C5F3080501EE09
:1020F000105AB8EE411A31EE811AF7EE001A31EE9D
:10210000211A22EE011AF0EE410A3FE03D4DB5FBE7
:10211000F0F501EE105AF8EE411A9FED381A80EEF4
:10212000012A344D10352D68C5F3080501EE105A0B
:1021300000E00CE0B8EE411A32EE011AB7EE002AC8
:1021400031EE021A21EE811AF0EE410A1EE02C4D0A
:10215000B5FBF0F501EE105AB8EE412A9FED271AB3
:10216000C0EE011A234D10352D68C5F3080501EEA8
:10217000105AB8EE411A31EE811AF7EE001A31EE1C
:10218000211A22EE011AF0EE410A00BF00BF194DDC
:1021900010352D68C5F346256D1C01EE105AB8EEBA
:1021A000411AC0EE811ABCEEE11A81ED001A114D00
:1021B00010352D68C5F306456D1C01EE105AB8EEBA
:1021C000411AC0EE811ABCEEE11A81ED011A094DE7
:1021D00010352D68C5F306656D1C01EE105AB8EE7A
:1021E000411AC0EE811ABCEEE11A81ED021A70BDEF
:1021F00000000000284402580090D0030000004670
:1022000000093D0040787D0170B5014600220120A3
:10221000002300249FED811AB0EE410A9FED7F1A42
:10222000F0EE410A7E4D2D6805F003027C4D2D68CD
:10223000C5F305507A4D2D1D2D6805F48073784D3A
:102240001C352D68C5F3CC0515FB03F501EE105ABE
:10225000B8EE411AB0EE410A22B1012A4DD0022A4D
:102260007DD169E06E4D283D2D68C5F340152DB335
:102270006B4D283D2D68C5F3C1066A4D25FA06F45D
:10228000B4FBF0F501EE105AF8EE411A9FED661A14
:1022900080EE012A624D18352D68C5F3080501EE60
:1022A000105AB8EE411A32EE011AB7EE002A31EE9A
:1022B000021A21EE811AF0EE410A1DE0594DB5FBDC
:1022C000F0F501EE105AF8EE411A9FED571A80EE24
:1022D000012A534D18352D68C5F3080501EE105A33
:1022E000B8EE411A32EE011AB7EE002A31EE021AA8
:1022F00021EE811AF0EE410A5EE04C4DB5FBF0F59F
:1023000001EE105AB8EE412A9FED471AC0EE011AAD
:10231000434D18352D68C5F3080501EE105AB8EE87
:10232000411A31EE811AF7EE001A31EE211A22EE2F
:10233000011AF0EE410A3FE03D4DB5FBF0F501EE2C
:10234000105AF8EE411A9FED381A80EE012A344DEA
:1023500018352D68C5F3080501EE105A00E00CE0B1
:10236000B8EE411A32EE011AB7EE002A31EE021A27
:1023700021EE811AF0EE410A1EE02C4DB5FBF0F57E
:1023800001EE105AB8EE412A9FED271AC0EE011A4D
:10239000234D18352D68C5F3080501EE105AB8EE27
:1023A000411A31EE811AF7EE001A31EE211A22EEAF
:1023B000011AF0EE410A00BF00BF194D18352D6813
:1023C000C5F346256D1C01EE105AB8EE411AC0EE59
:1023D000811ABCEEE11A81ED001A114D18352D68F5
:1023E000C5F306456D1C01EE105AB8EE411AC0EE59
:1023F000811ABCEEE11A81ED011A094D18352D68DC
:10240000C5F306656D1C01EE105AB8EE411AC0EE18
:10241000811ABCEEE11A81ED021A70BD00000000C5
:10242000284402580090D0030000004600093D00F7
:1024300040787D0170B504460D4600268D48006841
:1024400000F00700A8420ED28A48006820F007007A
:102450002843884908600846006800F00700A84241
:1024600001D0012070BD207800F00200022807D1C1
:102470008148006820F00F00E16808437E49086049
:10248000207800F00100002851D07B48006820F43B
:102490007060A1680843784908606068022807D125
:1024A000754818380068C0F34040F8B90120D9E7F2
:1024B0006068032807D1704818380068C0F340608E
:1024C000A0B90120CEE76068012807D16A48183812
:1024D0000068C0F3002048B90120C3E766481838F7
:1024E0000068C0F3800008B90120BBE762480838E3
:1024F000006820F00700616808435F4908390860F8
:10250000FFF792FC06466068022811D108E0FFF749
:102510008BFC801B41F28831884201D90320A1E75E
:1025200055480838006800F038001028EFD13AE02C
:102530006068032811D108E0FFF776FC801B41F2A8
:102540008831884201D903208CE74B48083800685D
:1025500000F038001828EFD125E06068012811D17B
:1025600008E0FFF761FC801B41F28831884201D905
:10257000032077E740480838006800F03800082852
:10258000EFD110E008E0FFF74FFC801B41F28831EB
:10259000884201D9032065E737480838006800F011
:1025A00038000028EFD13348006800F00700A84247
:1025B0000ED93048006820F0070028432D490860F4
:1025C0000846006800F00700A84201D0012049E752
:1025D000207800F00400042807D12748006820F084
:1025E00070002169084324490860207800F0080041
:1025F000082809D12048001D006820F0700061699A
:1026000008431D49091D0860207800F010001028BB
:1026100009D11948001D006820F4E060A169084351
:102620001549091D0860207800F02000202809D1F4
:1026300011480830006820F07000E16908430E4935
:102640000831086000F066F80B49096801F4706110
:102650004FF4807292FAA2F2B2FA82F2D140074AA3
:10266000515CC840064908600F20FFF7FDFB0020C1
:10267000F8E6000000200052184402589A4F000863
:102680000000002410B5FFF777FC0949096801F044
:102690000F01012292FAA2F2B2FA82F2D140054A67
:1026A000515CC840044908600846006810BD00003D
:1026B000184402589A4F00080400002410B5FFF790
:1026C000E1FF0749096801F07001102292FAA2F2B5
:1026D000B2FA82F2D140034A515CC84010BD0000FA
:1026E0001C4402589A4F000810B5FFF7CBFF07496A
:1026F000096801F4E0614FF4807292FAA2F2B2FA32
:1027000082F2D140024A515CC84010BD1C440258BC
:102710009A4F000870B5012500EE905A0022012161
:1027200000230024DFED861AB0EE610ADFED841A83
:10273000B0EE611A0020834D2D6805F0380535B1E3
:10274000082D15D0102D15D0182D7CD114E07D4DFD
:10275000103D2D68C5F3401545B17A4D103D2D68EB
:10276000C5F3C106784D25FA06F000E07648E5E0AD
:102770007648E3E07648E1E0724D18352D6805F0C3
:102780000302704D18352D68C5F305116D4D1C35CC
:102790002D6805F001036B4D24352D68C5F3CC057C
:1027A00015FB03F501EE905AF8EE611AB0EE610ADE
:1027B00022B1012A4FD0022A7DD16BE0614D103D3C
:1027C0002D68C5F340152DB35E4D103D2D68C5F342
:1027D000C1065D4D25FA06F4B4FBF1F501EE905A01
:1027E000B8EE612ADFED5B1AC0EE212A554D203587
:1027F0002D68C5F3080501EE905AF8EE611A72EEE5
:10280000A11AF7EE002A71EEA21A62EE211AB0EEBA
:10281000611A1FE04C4DB5FBF1F501EE905AB8EE90
:10282000612ADFED4C1AC0EE212A464D20352D6875
:10283000C5F3080501EE905AF8EE611A72EEA11A7E
:10284000F7EE002A00E077E071EEA21A62EE211A9C
:10285000B0EE611A5EE03D4DB5FBF1F501EE905A28
:10286000B8EE612ADFED3B1AC0EE212A354D203546
:102870002D68C5F3080501EE905AF8EE611A72EE64
:10288000A11AF7EE002A71EEA21A62EE211AB0EE3A
:10289000611A3FE02E4DB5FBF1F501EE905AB8EE0E
:1028A000612ADFED2C1AC0EE212A264D20352D6835
:1028B000C5F3080500E00EE001EE905AF8EE611A4B
:1028C00072EEA11AF7EE002A71EEA21A62EE211A38
:1028D000B0EE611A1EE01D4DB5FBF1F501EE905A08
:1028E000F8EE612ADFED1B1A80EE212A154D203506
:1028F0002D68C5F3080501EE905AF8EE611A72EEE4
:10290000211AB7EE002A71EE821A62EEA11AB0EE19
:10291000611A00BF00BF0B4D20352D68C5F3462559
:102920006D1C00EE905AF8EE601A81EE212AFCEE42
:10293000C21A11EE900A01E0044800BF00BF70BD4A
:1029400000000000104402580090D00300093D0030
:1029500040787D010000004670B5044600252078CF
:1029600000F00100002872D0F948006800F038003B
:1029700010280CD0F648006800F03800182812D152
:10298000F3481830006800F0030002280BD1F0482B
:1029900010380068C0F3404000286DD060680028FF
:1029A0006AD1012070BD00BF6068B0F5803F08D1DA
:1029B000E7481038006840F48030E5491039086075
:1029C0002EE0606868B9E2481038006820F4803072
:1029D000DF49103908600846006820F4802008604C
:1029E0001EE06068B0F5A02F0DD1D94810380068FE
:1029F00040F48020D649103908600846006840F449
:102A0000803008600CE0D2481038006820F4803034
:102A1000CF49103908600846006820F4802008601B
:102A200000BF6068A0B1FFF7FFF9054608E0FFF7B7
:102A3000FBF9401B41F28831884201D90320B1E7FC
:102A4000C34810380068C0F340400028EFD013E0BE
:102A5000FFF7EAF9054608E0FFF7E6F9401B41F207
:102A60008831884201D903209CE7B94810380068B2
:102A7000C0F340400028EFD1207800F00200022887
:102A800047D1B348006800F0380058B1B04800683A
:102A900000F0380018283ED1AD481830006800F02A
:102AA0000300B8BBAA4810380068C0F3800018B112
:102AB000E06808B9012075E7A5481038006820F0E3
:102AC0001900E1680843A24910390860FFF7ACF922
:102AD000054606E0FFF7A8F9401B022801D90320AC
:102AE00060E79B4810380068C0F380000028F1D0F0
:102AF00097480C38006820F47C304FF47C3292FA0E
:102B0000A2F2B2FA82F221699140084390490C394D
:102B100008604AE0FFE7E06868B38D481038006855
:102B200020F01900E1680843894910390860FFF76F
:102B30007BF9054606E0FFF777F9401B022801D92B
:102B400003202FE7824810380068C0F38000002877
:102B5000F1D07F480C38006820F47C304FF47C3290
:102B600092FAA2F2B2FA82F22169914008437849BE
:102B70000C39086019E076481038006820F0010030
:102B8000734910390860FFF74FF9054606E0FFF773
:102B90004BF9401B022801D9032003E76C48103889
:102BA0000068C0F380000028F1D1207800F0100008
:102BB000102877D16648006800F0380008280CD04B
:102BC0006348006800F03800182823D160481830A6
:102BD000006800F0030001281CD15D48103800682F
:102BE000C0F3002020B1E069802801D00120D9E69F
:102BF00057480C38006820F0F8404FF0F84292FA3D
:102C0000A2F2B2FA82F2216A9140084350490C398B
:102C1000086047E0E06958B34D481038006840F05C
:102C200080004B4910390860FFF7FEF8054606E0C2
:102C3000FFF7FAF8401B022801D90320B2E6444806
:102C400010380068C0F300200028F1D040480C384C
:102C5000006820F0F8404FF0F84292FAA2F2B2FA7F
:102C600082F2216A9140084339490C39086019E021
:102C700037481038006820F0800035491039086066
:102C8000FFF7D2F8054606E0FFF7CEF8401B022812
:102C900001D9032086E62E4810380068C0F30020D2
:102CA0000028F1D1207800F00800082836D16069AA
:102CB000D0B127486430006840F0010024496431F5
:102CC0000860FFF7B1F8054606E0FFF7ADF8401BD6
:102CD000022801D9032065E61D4864300068C0F36E
:102CE00040000028F1D019E019486430006820F055
:102CF0000100174964310860FFF796F8054606E0C1
:102D0000FFF792F8401B022801D903204AE6104839
:102D100064300068C0F340000028F1D1207800F052
:102D20002000202834D1A069D8B1094810380068A3
:102D300040F48050064910390860FFF775F80546E1
:102D400008E0FFF771F8401B022803D9032029E6A9
:102D500010440258AF480068C0F340300028F0D05B
:102D600016E0AC48006820F48050AA490860FFF7DC
:102D70005BF8054606E0FFF757F8401B022801D92B
:102D800003200FE6A3480068C0F340300028F2D1CA
:102D9000207800F0040004287DD19F48006840F4AA
:102DA00080709D490860FFF73FF8054606E0FFF791
:102DB0003BF8401B642801D90320F3E596480068DE
:102DC00000F480700028F2D000BFA068012808D16C
:102DD00090487030006840F001008E497031086002
:102DE0002DE0A06868B98B487030006820F00100C1
:102DF0008849703108600846006820F004000860C7
:102E00001DE0A06805280DD182487030006840F0B0
:102E100004008049703108600846006840F00100F5
:102E200008600CE07B487030006820F001007949B0
:102E3000703108600846006820F00400086000BF98
:102E4000A068A0B1FEF7F0FF054608E0FEF7ECFF32
:102E5000401B41F28831884201D90320A2E56D4828
:102E600070300068C0F340000028EFD013E0FEF798
:102E7000DBFF054608E0FEF7D7FF401B41F2883133
:102E8000884201D903208DE5624870300068C0F3A4
:102E900040000028EFD1606A00287CD05D481030E7
:102EA000006800F03800182876D0606A022874D1D3
:102EB0005848006820F0807056490860FEF7B4FF5B
:102EC000054606E0FEF7B0FF401B022801D90320AB
:102ED00068E550480068C0F340600028F2D100BFA8
:102EE000D4E90A1041EA00104A492831096840F241
:102EF000F33291430843474928310860208E401E31
:102F0000C0F30800616B491E4FF47E4202EA412182
:102F10000843218F491ED20102EA014108433C21A6
:102F2000095D491E120202EA016108433949303144
:102F3000086000BF081D00684FF6F87188434FF61F
:102F4000F87292FAA2F2B2FA82F2A16C91400843AE
:102F50003049343108602F482C30006820F00C00D4
:102F6000216C08432B492C3108600846006820F08A
:102F70000200616C084327492C310860084600684C
:102F800040F4803008600846006840F40030086073
:102F90000846006802E03BE038E01FE040F4802093
:102FA00008600846006840F00100086019480068A1
:102FB00040F0807017490860FEF736FF054606E0CE
:102FC000FEF732FF401B022801D90320EAE4114832
:102FD0000068C0F340600028F2D019E00D48006896
:102FE00020F080700B490860FEF71EFF054606E0E2
:102FF000FEF71AFF401B022801D90320D2E405483E
:103000000068C0F340600028F2D101E00120C9E46B
:103010000020C7E40044025800480258042808D1A0
:103020004FF0E021096941F004014FF0E022116105
:1030300007E04FF0E021096921F004014FF0E022A0
:103040001161704770B504462546681EB0F1807F57
:1030500001D301200FE0681E4FF0E02148610F21ED
:103060004FF0FF3001F086FD00204FF0E021886135
:1030700007200861002070BD70477047014600229C
:10308000002391F8792091F87A3042EA03007047E2
:103090002DE9F04104462068C5692068076820686A
:1030A000866805F00F08B8F1000F0DD105F020007B
:1030B00050B107F0200010B906F0805020B1204632
:1030C00000F02DFEBDE8F081B8F1000F72D05D4830
:1030D000304018B907F4907000287AD005F001004C
:1030E00048B107F4807030B1012021680862E06FB8
:1030F00040F00100E06705F0020048B106F0010071
:1031000030B1022021680862E06F40F00400E067FF
:1031100005F0040048B106F0010030B10420216838
:103120000862E06F40F00200E06705F0080078B147
:1031300007F0200028B906F0805010B906F0010011
:1031400030B1082021680862E06F40F00800E067B5
:10315000E06F70B305F0200040B107F0200010B917
:1031600006F0805010B1204600F0D9FDE06F00F06D
:10317000080020B92068806800F0400018B320469D
:1031800000F0ADFD2068806800F04000B8B1206814
:10319000806820F0400021688860606F58B12A483C
:1031A000616F0865606FFEF785FC10B1606F016D9F
:1031B00088470DE00DE02046FFF75FFF08E020465E
:1031C000FFF75BFF04E02046FFF757FF0020E067B2
:1031D00078E705F4801078B106F4800060B14FF410
:1031E000801021680862202084F8790084F87A0031
:1031F0002046FFF741FF65E705F0800048B107F082
:10320000800010B906F4000018B1204601F09EFAC3
:1032100058E705F0400030B107F0400018B12046F3
:1032200000F06DFD4EE705F4000040B107F080406E
:1032300028B12068006820F080402168086000BF45
:1032400040E7000001000010C73C000810B504462C
:103250000CB9012010BDA06900B100E000BF94F8D6
:10326000790028B9002084F87800204600F02AF878
:10327000242084F879002068006820F0010021688B
:103280000860204600F090FD012800D1E2E7606B65
:1032900010B1204600F068FC2068406820F490409F
:1032A000216848602068806820F02A0021688860D2
:1032B0002068006840F0010021680860204600F0A6
:1032C000C8FCC7E710B586B004466049206888424C
:1032D0003BD100BF5E48006840F002005C490860D6
:1032E0000846006800F00200009000BF00BF00BF69
:1032F00057481030006840F0100055491031086000
:103300000846006800F01000009000BF00BF4FF4B6
:10331000804001900220029001200390022004903E
:103320000420059001A94B48FEF74AFC4FF40040E9
:10333000019001A94748FEF743FC2520FEF7BBFD9D
:10334000032211462520FEF7C6FD43492068884226
:1033500039D100BF3E48006840F001003C49086098
:103360000846006800F00100009000BF00BF00BFE9
:1033700037480830006840F40030354908310860AB
:103380000846006800F40030009000BF00BF042031
:103390000190022002900120039002200490072057
:1033A000059001A92D48FEF70BFC0820019001A90A
:1033B0002A48FEF705FC2620FEF77DFD0322114674
:1033C0002620FEF788FD2649206888423BD100BFB1
:1033D0001F48006840F002001D4908600846006868
:1033E00000F00200009000BF00BF00BF1848083086
:1033F000006840F4802016490831086008460068DB
:1034000000F48020009000BF00BF4FF48060019066
:1034100002200290012003900220049007200590D2
:1034200001A90C48FEF7CCFB4FF40060019001A904
:103430000848FEF7C5FB2720FEF73DFD0322114695
:103440002720FEF748FD06B010BD00000010014027
:10345000E0440258000402580044004000000258B2
:103460000048004010B5034693F87A00202867D141
:1034700001B10AB9012010BD00BF93F878000128FE
:1034800001D10220F7E7012083F8780000BF5966D8
:10349000A3F86820A3F86A2000BF9868B0F5805FA1
:1034A0000AD1186920B940F2FF10A3F86C001CE0A3
:1034B000FF20A3F86C0018E0986848B9186918B99B
:1034C000FF20A3F86C0010E07F20A3F86C000CE054
:1034D0009868B0F1805F08D1186918B97F20A3F807
:1034E0006C0002E03F20A3F86C0000BF0020D8670A
:1034F000222083F87A0000BF002083F8780000BF04
:103500001868806840F001001C68A06018680068B6
:1035100000F0005060B11868006840F480701C68CA
:1035200020601868806840F080501C68A06005E04A
:103530001868006840F490701C68206000209AE7CA
:10354000022098E75F4A0168914241D15E490978BB
:10355000BE290DD15D490978BE2909D000215C4AF8
:10356000118059490978594A594B1B88D1542FE089
:1035700056490978BE292BD155490988491C544A16
:1035800011801146098801290AD14F490A784F490B
:103590004F4B1B88CA544C4909784E4A116005E0CC
:1035A00049490A7849494A4B1B88CA5448490988FD
:1035B000484A1268914202DD0021454A118044497F
:1035C0000988444A1268914202D10121424A11609D
:1035D000424A016891422ED1414909789C290DD176
:1035E000404909789C2909D000213F4A11803C4973
:1035F0000A783C493C4B1B88CA541CE0394909787D
:103600009C2918D138490988491C374A1180344906
:103610000A783449344B1B88CA54334909885829DD
:1036200002DD0021304A11802F490988572902D133
:1036300001212E4A11602E4A0168914241D12D4943
:103640000978AF290DD12C490978AF2909D000217B
:103650002A4A118027490978274A284B1B88D154C8
:103660002FE025490978AF292BD124490988491C25
:10367000224A11801146098801290AD11D49097879
:103680001D4A1E4B1B88D1541A4909781C4A1160E7
:1036900005E018490A781849184B1B88CA5417497D
:1036A0000988174A1268914202DD0021134A1180ED
:1036B00012490988124A1268914202D10121114A25
:1036C00011607047001001402000002450000024C9
:1036D00018000024140000241C00002400440040B2
:1036E0003000002454010024280000242C00002471
:1036F0000048004040000024580200243800002404
:10370000340000243C0000242DE9F84304460D4613
:1037100016461F464FF0000994F87900202854D12E
:1037200005B116B90120BDE8F88300BF94F8780010
:10373000012801D10220F6E7012084F8780000BFBB
:1037400000206034E06121206076FEF76DFB814649
:1037500026806680603C21E0B4F86200401EA4F838
:1037600062004B46002280212046009701F02FF88E
:1037700008B10320D7E7A068B0F5805F0AD12069BF
:1037800040B9A846B8F80000C0F3080021680885D1
:10379000AD1C03E015F8010B21680885B4F8620040
:1037A0000028D9D14B46002240212046009701F045
:1037B0000EF808B10320B6E7202084F8790000BF96
:1037C000002084F8780000BFADE70220ABE7704727
:1037D00000BFFEE700BFFEE77047704710B500234B
:1037E000234C236000BF00BF00BFBFF34F8F00BF5B
:1037F00000BF00BF231F1868C0F34E3100BFC0F3E5
:10380000C90200BF43F6E07303EA41134FF040449E
:1038100004EA82742343174C236000BF00BF131EC9
:10382000A2F10102EED10B1EA1F10101E7D100BF0F
:1038300000BF00BFBFF34F8F00BF00BF00BF0C4BE6
:10384000703B1B6843F48033094C703C236000BF1D
:1038500000BF00BFBFF34F8F00BF00BF00BF00BF5E
:1038600000BF00BFBFF36F8F00BF00BF00BF10BD20
:1038700084ED00E060EF00E000BF00BF00BFBFF3D9
:103880004F8F00BF00BF00BF00BF00BF00BFBFF32E
:103890006F8F00BF00BF00BF00201449086000BF49
:1038A00000BF00BFBFF34F8F00BF00BF00BF00BF0E
:1038B00000BF00BFBFF36F8F00BF00BF00BF0C4849
:1038C000006840F400300A49086000BF00BF00BF34
:1038D000BFF34F8F00BF00BF00BF00BF00BF00BFDE
:1038E000BFF36F8F00BF00BF00BF704750EF00E015
:1038F00014ED00E07047000070B50025002600249C
:103900000FE00026A0B2FDF78FFE002503E0FDF7D3
:1039100063FE06466D1C032DF9DB1A49201D0E546B
:10392000641C202CEDDBBE20164908702520487051
:10393000FF208870C87023211248401CFDF786FEC6
:10394000000A104981F8240023210E48401CFDF78D
:103950007DFE0C4981F825004FF4FA6326220A48BF
:10396000FFF7D2FE00BF08480068C069C0F38010AE
:103970000028F8D00548006840F0040003490860BA
:1039800070BD0000AA000024D400002400100140F3
:1039900010B501224FF6FF710C48FEF73FFA0122E5
:1039A0004FF6FF710A48FEF739FA962001F00CF93C
:1039B00000224FF6FF710548FEF730FA00224FF65D
:1039C000FF710348FEF72AFA10BD000000080258F4
:1039D000000C02582DE9F0419CB080460C4615467B
:1039E0001E4600273748006820F00400354908606B
:1039F00000BF0020009033480C30006840F4404085
:103A000030490C3108600846006800F440400090DE
:103A100000BF00BF00BF2B480C30006800F400500E
:103A2000B0F5005FF7D10120019000040290002062
:103A30000490089002200A9002210B91CDF8348066
:103A40000C940E950F96002112910821119101A856
:103A5000FEF782FF07460FB100BFFEE73F2014903C
:103A600003201590002016900820179040201990F0
:103A700000011A904020189050201B90022114A899
:103A8000FEF7D8FC07460FB100BFFEE70E480068FE
:103A900040F080000C49086000BF0B48F43000681B
:103AA00040F002000849F43108600846006800F060
:103AB0000200009000BF00BFFEF778F81CB0BDE820
:103AC000F08100000C4802580044025810B5FEF77F
:103AD000B1F910BD2048006840F470001E4908602C
:103AE0001E48006840F001001C49086000201B4986
:103AF00010310860194800681949084017490860E2
:103B00000020164918310860091D0860091D086069
:103B1000124928310860091D0860091D0860091D47
:103B20000860091D0860091D0860091D0860091D5D
:103B300008600A48006820F48020084908600020D6
:103B4000064960310860012006490860C006024944
:103B5000803908607047000088ED00E0004402589A
:103B60007FEDF6EA0881005190F8341001F0010170
:103B700039B10168496821F40031826B1143026850
:103B8000516090F8341001F0020139B101684968C0
:103B900021F48031C26B11430268516090F83410F7
:103BA00001F0040139B10168496821F48021026CF7
:103BB00011430268516090F8341001F0080139B1E6
:103BC0000168496821F40041426C11430268516068
:103BD00090F8341001F0100139B10168896821F4BE
:103BE0008051826C11430268916090F8341001F0AA
:103BF000200139B10168896821F40051C26C114378
:103C00000268916090F8341001F0400199B10168A8
:103C1000496821F48011026D114302685160016D01
:103C2000B1F5801F07D10168496821F4C001426DD8
:103C300011430268516090F8341001F0800139B1ED
:103C40000168496821F40021826D114302685160C6
:103C5000704738B5044600250020E067FEF7E4F819
:103C600005462068006800F0080008280CD16FF0B5
:103C70007E402B4600224FF400110090204600F0B9
:103C8000A6FD08B1032038BD2068006800F00400DC
:103C900004280CD16FF07E402B4600224FF48001A7
:103CA0000090204600F093FD08B10320EBE72020B0
:103CB00084F8790084F87A0000BF002084F8780046
:103CC00000BF00BFDFE770B50546AC6B0020A4F86D
:103CD0006A00A4F862002046FFF7CFF970BD0168C2
:103CE000096821F49071026811600168896821F007
:103CF000010102689160202180F87A10704710B5A8
:103D000004462068006820F04000216808602020F8
:103D100084F879002046FFF75AFD002010BD2DE9F8
:103D2000F0410446B4F86C7094F87A00222833D13C
:103D30002068858CA068B0F5805F09D1206938B90A
:103D4000666E05EA07003080606E801C606605E0E4
:103D5000F8B22840626E511C61661070B4F86A00B7
:103D6000401E80B2A4F86A00A0B92068006820F460
:103D70009070216808602068806820F00100216848
:103D80008860202084F87A002046FFF7DBFB0020C3
:103D9000BDE8F0810020FBE72068008B40F00800C0
:103DA000216808830220F3E72DE9F04F89B004462B
:103DB00000254FF08008A946AA4600200890FA493D
:103DC0002068884201D1012000E0002000B100E01D
:103DD00000BFA06AB0F1005F00D100BF2169A068F8
:103DE000084361690843E16940EA0105A06A0543A7
:103DF00020680068ED490840284321680860206871
:103E0000406820F44050E168084321684860A56993
:103E1000E5492068884201D1012000E0002008B96E
:103E2000206A0543A06AB0F1005F03D1D4E90B0119
:103E30000843054320688068DD490840284321681D
:103E400088602068C06A20F00F00616A084321681A
:103E5000C86200BFD7492068884224D1D64800688C
:103E600000F03800182814D005DC48B108280AD022
:103E7000102817D10AE020280ED0282812D10EE0F1
:103E80004FF001080EE04FF004080BE04FF040083F
:103E900008E04FF0080805E04FF0100802E04FF08E
:103EA000200800BF17E1C549206888421DD1C248DB
:103EB000006800F00700062816D2DFE800F00306CD
:103EC000090C0F124FF000080EE04FF004080BE051
:103ED0004FF0400808E04FF0080805E04FF01008E8
:103EE00002E04FF0200800BFF5E0B54920688842A5
:103EF0001DD1B148006800F00700062816D2DFE89F
:103F000000F00306090C0F124FF000080EE04FF00E
:103F100004080BE04FF0400808E04FF0080805E007
:103F20004FF0100802E04FF0200800BFD3E0A54991
:103F3000206888421DD1A048006800F007000628CC
:103F400016D2DFE800F00306090C0F124FF000084C
:103F50000EE04FF004080BE04FF0400808E04FF08F
:103F6000080805E04FF0100802E04FF0200800BFFD
:103F7000B1E09549206888421DD18F48006800F063
:103F80000700062816D2DFE800F00306090C0F121E
:103F90004FF000080EE04FF004080BE04FF040082F
:103FA00008E04FF0080805E04FF0100802E04FF07D
:103FB000200800BF8FE085492068884224D17E48D0
:103FC000006800F03800182814D005DC48B1082833
:103FD0000AD0102817D10AE020280ED0282812D1A4
:103FE0000EE04FF001080EE04FF004080BE04FF038
:103FF000400808E04FF0080805E04FF0100802E024
:104000004FF0200800BF66E07149206888421DD14A
:104010006948006800F00700062816D2DFE800F0C3
:104020000306090C0F124FF000080EE04FF00408D1
:104030000BE04FF0400808E04FF0080805E04FF0B3
:10404000100802E04FF0200800BF44E061492068FA
:1040500088421DD15848006800F00700062816D293
:10406000DFE800F00306090C0F124FF000080EE025
:104070004FF004080BE04FF0400808E04FF008084C
:1040800005E04FF0100802E04FF0200800BF22E0EA
:104090004549206888421ED14748001D006800F04D
:1040A0000700062816D2DFE800F00306090C0F12FD
:1040B0004FF002080EE04FF004080BE04FF040080C
:1040C00008E04FF0080805E04FF0100802E04FF05C
:1040D000200800BF00BF00BF33492068884201D1DB
:1040E000012000E0002000285DD00025B8F1100F6D
:1040F00033D009DCB8F1020F10D0B8F1040F11D0A1
:10410000B8F1080F2ED117E0B8F1200F27D0B8F181
:10411000400F0CD0B8F1800F24D124E0FDF748FF08
:10412000054623E005A8FDF759FF069D1EE002A8FD
:10413000FEF76AF8039D19E01F4854380068C0F381
:10414000401040B11C4854380068C0F3C1012248F7
:1041500020FA01F500E0204D08E0204D06E04FF484
:10416000004503E000BF0120089000BF00BF002D04
:104170000AD0606800EB4000A84203D860680003E2
:10418000A84202D201200890D4E2B8F1100F7CD0EE
:1041900026DCB8F1020F2DD0B8F1040F52D0B8F1DF
:1041A000080F73D19EE03FE1000C0058F369FFCF88
:1041B000FFF4FF1100100140544402580044004035
:1041C00000480040004C00400050004000140140F6
:1041D00000780040007C00400090D00300093D00C2
:1041E000B8F1200F7DD0B8F1400F54D0B8F1800F56
:1041F000D7D109E1FDF7DCFE00270646FB49606ADE
:1042000031F810C062463B4630463946FCF7C4F8E8
:104210004FF4807600220346A3FB060701FB0671DC
:1042200003FB021361684908064671185A41CDE93B
:10423000001266683246002308460199FCF7ACF884
:104240000546E4E005A8FDF7C9FEDDF818C0E7491A
:10425000606A31F810B05A46002360461946FCF7F0
:104260009BF84FF4807C0022A0FB0C3B01FB0CB1BF
:1042700000FB0210616849085E1840EB0201D4F8A7
:1042800004C062460023304601E079E0BBE0FCF761
:1042900083F80546BBE002A8FDF7B6FFDDF80CC0C9
:1042A000D249606A31F810B05A4600236046194678
:1042B000FCF772F84FF4807C0022A0FB0C3B01FB62
:1042C0000CB100FB0210616849085E1840EB020166
:1042D000D4F804C0624600233046FCF75DF805467A
:1042E00095E06EE0C2480068C0F3401038B3C048A3
:1042F0000068C0F3C101BF4820FA01FCBB49606AF5
:1043000031F810B05A46002360461946FCF744F8CD
:104310004FF4807C0022A0FB0C3B01FB0CB100FBA6
:104320000210616849085E1840EB0201D4F804C02D
:10433000624600233046FCF72FF805461FE0AB49E4
:10434000606A31F810C062460023AA481946FCF79B
:1043500023F84FF4807C0022A0FB0C3B01FB0CB146
:1043600000FB0210616849085E1840EB0201D4F8B6
:1043700004C0624600233046FCF70EF8054646E0CE
:104380009A49606A31F810C0624600239A4819467B
:10439000FCF702F84FF4807C0022A0FB0C3B01FBF1
:1043A0000CB100FB0210616849085E1840EB020185
:1043B000D4F804C0624600233046FBF7EDFF054603
:1043C00025E08A49606A31F810C0624600234FF444
:1043D00000401946FBF7E0FF4FF4807C0022A0FB71
:1043E0000C3B01FB0CB100FB0210616849085E1830
:1043F00040EB0201D4F804C0624600233046FBF7CC
:10440000CBFF054603E000BF0120089000BF00BFBE
:10441000B5F5407F05D3B5F5801F02D22068C56091
:1044200088E10120089085E1E069B0F5004F7CD17A
:10443000B8F1100F7AD00CDCB8F1000F13D0B8F13E
:10444000010F21D0B8F1040F2FD0B8F1080F6ED1B1
:1044500051E0B8F1200F6BD0B8F1400F38D0B8F16F
:10446000800F64D197E0FEF729F9604A616A32F85B
:104470001110B0FBF1F04000616800EB5100B0FB9F
:10448000F1F01FFA80FA89E0FEF72EF9574A616AC7
:1044900032F81110B0FBF1F04000616800EB510000
:1044A000B0FBF1F01FFA80FA78E005A8FDF796FD61
:1044B00006994E4A606A32F81000B1FBF0F04000F5
:1044C000616800EB5100B0FBF1F01FFA80FA65E083
:1044D00002A8FDF799FE0399444A606A32F8100079
:1044E000B1FBF0F04000616800EB5100B0FBF1F06F
:1044F0001FFA80FA52E03E480068C0F34010C0B195
:104500003B480068C0F3C1013A48C840374A616A75
:1045100032F81110B0FBF1F04000616800EB51007F
:10452000B0FBF1F01FFA80FA12E044E011E031E054
:104530001FE02E49606A31F810002E49B1FBF0F0FF
:104540004000616800EB5100B0FBF1F01FFA80FA07
:1045500024E02649606A31F810002749B1FBF0F0E9
:104560004000616800EB5100B0FBF1F01FFA80FAE7
:1045700014E01E49606A31F810004FF40041B1FBAD
:10458000F0F04000616800EB5100B0FBF1F01FFA61
:1045900080FA03E000BF0120089000BF00BF4FF683
:1045A000F0700AEA0009CAF3420049EA00092068EB
:1045B000C0F80C90BEE0B8F1100F7CD00CDCB8F164
:1045C000000F1BD0B8F1010F29D0B8F1040F37D07C
:1045D000B8F1080F70D159E0B8F1200F6DD0B8F1E3
:1045E000400F40D0B8F1800F66D19FE0AA4F00087D
:1045F000004402580090D00300093D00FEF75EF829
:104600004E4A616A32F81110B0FBF1F0616800EBBC
:104610005100B0FBF1F080B22168C86089E0FEF77C
:1046200063F8464A616A32F81110B0FBF1F0616834
:1046300000EB5100B0FBF1F080B22168C86078E077
:1046400005A8FDF7CBFC06993C4A606A32F81000D9
:10465000B1FBF0F0616800EB5100B0FBF1F080B20B
:104660002168C86065E002A8FDF7CEFD0399334AD2
:10467000606A32F81000B1FBF0F0616800EB5100A5
:10468000B0FBF1F080B22168C86052E02C480068AD
:10469000C0F34010C0B12A480068C0F3C1012948E6
:1046A000C840264A616A32F81110B0FBF1F0616827
:1046B00000EB510002E017E037E025E0B0FBF1F03D
:1046C00080B22168C8600EE01C49606A31F81000B1
:1046D0001C49B1FBF0F0616800EB5100B0FBF1F058
:1046E00080B22168C86024E01449606A31F8100083
:1046F0001549B1FBF0F0616800EB5100B0FBF1F03F
:1047000080B22168C86014E00C49606A31F810007A
:104710004FF40041B1FBF0F0616800EB5100B0FBD9
:10472000F1F080B22168C86003E000BF012008906A
:1047300000BF00BF089809B0BDE8F08FAA4F00087D
:10474000004402580090D00300093D00014691F852
:104750007900212839D1B1F86200C8B90868006829
:1047600000F0005030B10868806820F400000B6849
:10477000986005E00868006820F080000B68186009
:104780000868006840F040000B681860002070471F
:104790008868B0F5805F0BD1086948B9CA6D108888
:1047A000C0F308000B681885C86D801CC86505E05B
:1047B000CB6D581CC86518780B681885B1F8620075
:1047C000401EA1F862000020E1E70220DFE72DE9AA
:1047D000F04104460D4617469846069E21E0701C9F
:1047E000F8B12EB1FDF720FBA0EB0800B04218D9BC
:1047F0002068006820F4D070216808602068806814
:1048000020F0010021688860202084F8790084F875
:104810007A0000BF002084F8780000BF0320BDE8C4
:10482000F0812068C0692840A84201D1012000E041
:104830000020B842D3D00020F1E7000070B500247A
:104840000F4D1048FEF724FC00BF03E0641CAC428F
:1048500000D904E00B48FEF711FC2028F6D100BF78
:10486000002403E0641CAC4200D906E001220649A2
:104870000448FEF7F7FD0028F4D100BF70BD00002A
:10488000FFFF0100D40000242000002470B50024A4
:104890000F4D1048FEF7FCFB00BF03E0641CAC4268
:1048A00000D904E00B48FEF7E9FB2028F6D100BF51
:1048B000002403E0641CAC4200D906E00122064952
:1048C0000448FEF7CFFD0028F4D100BF70BD000002
:1048D000FFFF0100D80100243000002470B500243F
:1048E0000F4D1048FEF7D4FB00BF03E0641CAC4240
:1048F00000D904E00B48FEF7C1FB2028F6D100BF29
:10490000002403E0641CAC4200D906E00122064901
:104910000448FEF7A7FD0028F4D100BF70BD0000D9
:10492000FFFF0100DC0200244000002400BFFEE77E
:1049300010B54A480068002873D049480078BE285E
:1049400027D147484078052823D145488078FF285B
:104950001FD14348C078FF281BD141480079022865
:1049600017D13F484079032813D100203D49086002
:104970003B49087048708870C870087148713749A1
:1049800008603948006820F00400374908600120B9
:1049900010BD33480078BE281ED031484078052825
:1049A0001AD02F488078FF2816D02D48C078FF28CD
:1049B00012D005212A48401CFCF748FE28490979F5
:1049C000B1EB102F08D105212548401CFCF73EFE15
:1049D00023494979884233D0BE20214908700520F7
:1049E0004870002088705720C870002008715C2033
:1049F00048711C4801680068401C1A4A106003296D
:104A000010DA4FF47A73062215491848FEF77CFE37
:104A100000BF16480068C069C0F380100028F8D0B5
:104A200003E018E000200F49086000200C490870DE
:104A300048708870C8700871487108490860A7E715
:104A400000200749087048708870C8700871487164
:104A5000024908609CE700209AE700001C0000243F
:104A6000500000241000002400100140D400002455
:104A700011480068D0B1114800789C280DD10F482A
:104A80004078082809D100200C49087048708870C7
:104A9000C870094908600120704700200749087064
:104AA00048708870C87004490860F5E70020024922
:104AB000086000BFF0E700002C000024540100242F
:104AC0000F480068D0B10F480078AF280DD10D48CD
:104AD0004078032809D10B488078092805D1094876
:104AE000C078F62801D101207047002005490870E0
:104AF00048708870C87002490860F5E70020F3E745
:104B00003C0000245802002410B5044600224FF453
:104B100078710748FDF782F9012000F055F84FF64B
:104B2000FF7000EA441101220148FDF777F910BD3A
:104B30000018025803B401984100009850EAC120BF
:104B400018BF04204A0D18BF40F0010040F2FF7268
:104B5000B2EB515F08BF40F00200012808BF0520FA
:104B600002B0704702480068C0F30220704700009E
:104B70000CED00E010B5002804DB0A07130E054A0F
:104B8000135406E00A07140E034A00F00F031B1F1C
:104B9000D45410BD00E400E018ED00E030380A28DD
:104BA00001D2012070470020704700BF704790ED90
:104BB000000A704710B504460420FEF72FFA01489A
:104BC000046010BD0800002430B50446002504E050
:104BD0004FF47A7000F004F86D1CA542F8D330BD94
:104BE00070B5034600224FF0E02675690D4E366819
:104BF00003FB06F44FF0E026B16910E04FF0E02629
:104C0000B06988420BD0884202D20E1A324402E0C8
:104C10002E1A0E4432440146A24200D300E0EDE7D2
:104C200000BF70BD0800002400BF054A126802F0F2
:104C30004002002AF9D0C2B2014B0C331A807047EF
:104C40001C4800402DED028BFCF70CFDFDF7FEF833
:104C5000042302220521A020FEF7BCFE4FF4C870F9
:104C6000FFF7A8FFFCF75EFD4FF4E13000F00CF910
:104C70004FF4E13000F024F94FF4E13000F03CF95A
:104C8000E1E00026002500270024A046A246A14618
:104C9000FFF74EFE60B3FCF745FDFEF779FE08E036
:104CA000761C0120FFF790FFB6F5FA6F01DD0026B4
:104CB00003E0FCF7E7FC0028F2D100BFFCF7E2FCC0
:104CC00020B9FEF719FE4FF0010A09E0FCF7DAFC03
:104CD00030B14FF0000A002220215B48FDF79EF81A
:104CE0004FF001095948006840F004005749086036
:104CF000FFF7E6FE002874D0B9F1000FFBD00025C5
:104D00009DE04FF00008002051490860A8B2FFF76D
:104D1000FBFE0120FFF758FFBE204E49087003201C
:104D20004870FF208870C8704FF47A7304224A4894
:104D3000FEF7EAFC00BF48480068C069C0F3801075
:104D40000028F8D00AE07F1C0120FFF73DFFB7F5EF
:104D5000967F03DD00274FF0010803E0FFF788FE90
:104D60000028F0D000BF45B93C48FBF78DFB3C481C
:104D7000FBF78AFB3B48FBF787FBB8F1000F59D1E3
:104D8000691C39A0FBF780FB394890F8260093286E
:104D900004D1374890F82500802809D0344890F88D
:104DA0002600932831DD324890F82600B7282CDA07
:104DB00000240FE0A10008312D4A8818FFF7F7FE04
:104DC000B7EEC00AB0EE408B53EC182B29A0FBF7CE
:104DD0005BFB641C072CEDDB28A0FBF755FB0724CD
:104DE00010E02FE0A1000831214A8818FFF7DFFE0C
:104DF000B7EEC00AB0EE408B53EC182B1DA0FBF7AA
:104E000043FB641C132CEDDB18E000240FE0A10031
:104E10000831174A8818FFF7CAFEB7EEC00AB0EE8D
:104E2000408B53EC182B13A0FBF72EFB641C142CA7
:104E3000EDDB03E0691C1348FBF726FB6D1C202DFE
:104E4000FFF65FAF00BF1CE70000025800100140F2
:104E50002C000024AE010024D8010024F4510008E5
:104E60001051000870500008544553542564200028
:104E7000540100242025342E32660000202D2D2DD3
:104E80002D2D0000B051000810B5044609480A490C
:104E900008600846446000218160C1600161816151
:104EA0000C214161FEF7D2F9012204490248FEF7C4
:104EB000D9FA10BD00100140D400002420000024C5
:104EC00010B5044609480A490860084644600021B4
:104ED0008160C160016181610C214161FEF7B6F919
:104EE000012204490248FEF7BDFA10BD004400400B
:104EF000D80100243000002410B5044609480A49AE
:104F000008600846446000218160C16001618161E0
:104F10000C214161FEF79AF9012204490248FEF78B
:104F2000A1FA10BD00480040DC020024400000242B
:104F300010B500290AD00878002807D00548784421
:104F4000FBF75AFF002801D0002010BD024878442A
:104F500010BD0000460300003E0300004FF040700B
:104F6000E1EE100A7047FBF7B9BC01000200040033
:104F7000060008000A000C0010002000400080001D
:104F80000001010002000400060008000A000C00F5
:104F9000100020004000800000010000000001021D
:104FA00003040102030406070809010002000400CB
:104FB000060008000A000C001000200040008000DD
:104FC0000001010002000400060008000A000C00B5
:104FD000100020004000800000010000024000009E
:104FE000000000A00000000005400000000000C814
:104FF000000000000C4000000000409C0000000089
:10500000194000000020BCBE000000003440000039
:10501000BFC91B8E00000004B5400000504BCFD02C
:105020006607E2CF010000006C4100003E8251AAF9
:10503000DFEEA73401000000D9420000DCB5A0E299
:105040003A301F97FFFFFFFFB4450000FD25A0C8C1
:10505000E9A3C14FFFFFFFFFFF3F000000000080FA
:1050600000000000FF3F0000000000800000000082
:105070004C696D6974486920202D302E33562020EC
:105080002D302E335620202D302E33562020202D2B
:10509000302E335620202D302E33562020302E38FF
:1050A000562020302E385620203336366E7320207E
:1050B000203336366E732020203733326E73202033
:1050C000202036382020203334202020363820205D
:1050D0002039353075412020203136323530754148
:1050E0005F5220313632353075415F4720313632DC
:1050F000353075415F4220203175415F52202031AB
:1051000075415F4720203175415F420D0A00000064
:105110004C696D69744C6F20202D302E385620203C
:105120002D302E385620202D302E38562020202D80
:10513000302E385620202D302E38562020302E3359
:10514000562020302E335620203234316E732020EA
:10515000203239346E732020203538386E73202089
:1051600020203635202020333220202036352020C4
:105170002036303075412020203932353075415F7E
:105180005220203932353075415F47202039323581
:105190003075415F4220202D3175415F52202D3105
:1051A00075415F47202D3175415F420D0A000000B7
:1051B00054455354256420526573756C7449734E7D
:1051C0006F7452657665696365642C5472794167C2
:1051D00061696E4F725265706F72744974546F5288
:1051E000656C61746976654465706172746D656E35
:1051F000740D0A004861726442494E20204F535F8B
:10520000485620204F535F435320204F535F524F47
:105210005650204F535F44524E20496F705F48569E
:105220002042564453532049445353204856444443
:105230005F6F6E20485644445F6F6666204948564B
:1052400044445F6F702049485644445F737420564D
:1052500054485F434320544F46465F6D61780D0AC2
:1052600000000000A05200080000002450000000D0
:10527000D4020008F0520008500000247009000019
:10528000F00200081C00000043000000F8FFFFFFD0
:105290000C0000000E0000000F0000002E000000B7
:1052A0000090D0030090D003000000000000000038
:1052B00000000000000000000000000000000000EE
:1052C00000000000000000000000000000000000DE
:1052D00000000000000000000000000000000000CE
:1052E00000000000000000001000000001000000AD
:040000050800029954
:00000001FF
