:020000040800F2
:10000000680B0024390300084D6F0008996C000844
:10001000496F000811070008399C00080000000023
:10002000000000000000000000000000BD7D00088E
:100030001D0B000800000000E9710008898000081D
:100040005303000853030008530300085303000838
:100050005303000853030008530300085303000828
:100060005303000853030008530300085303000818
:100070005303000853030008530300085303000808
:1000800053030008530300085303000853030008F8
:1000900053030008530300085303000853030008E8
:1000A0005303000853030008530300082581000888
:1000B00053030008530300085303000853030008C8
:1000C00053030008530300085303000853030008B8
:1000D00053030008999B0008E99B0008530300089C
:1000E00053030008530300080000000053030008F6
:1000F0005303000853030008ED830008530300086E
:100100005303000853030008530300085303000877
:100110005303000853030008530300085303000867
:100120005303000853030008530300085303000857
:100130005303000853030008530300085303000847
:1001400000000000000000000000000000000000AF
:100150005303000853030008530300085303000827
:100160005303000853030008530300085303000817
:100170005303000853030008530300080000000065
:1001800053030008530300085303000853030008F7
:1001900053030008530300085303000853030008E7
:1001A00053030008530300085303000853030008D7
:1001B00053030008530300085303000853030008C7
:1001C00053030008530300085303000853030008B7
:1001D00053030008530300085303000853030008A7
:1001E0005303000853030008530300085303000897
:1001F0005303000853030008530300085303000887
:100200005303000853030008530300085303000876
:100210005303000853030008530300085303000866
:1002200053030008530300085303000800000000B4
:1002300053030008530300080000000053030008A4
:100240005303000853030008530300085303000836
:100250005303000853030008530300085303000826
:100260005303000853030008530300085303000816
:100270005303000853030008530300080000000064
:1002800053030008000000005303000800000000B2
:10029000000000005303000800F002F800F03CF8F2
:1002A0000AA090E8000C82448344AAF10107DA45D1
:1002B00001D100F031F8AFF2090EBAE80F0013F0E7
:1002C000010F18BFFB1A43F001031847609C0000A0
:1002D000809C0000103A24BF78C878C1FAD8520731
:1002E00024BF30C830C144BF04680C6070470000B0
:1002F0000023002400250026103A28BF78C1FBD82F
:10030000520728BF30C148BF0B6070471FB509F0C6
:10031000CFFD1FBD10B510BD00F0DAF81146FFF794
:10032000F5FF09F00FFD00F0F8F803B4FFF7F2FF56
:1003300003BC09F0CBFC000009488047094800478E
:10034000FEE7FEE7FEE7FEE7FEE7FEE7FEE7FEE785
:10035000FEE7FEE704480549054A064B70470000E2
:10036000918000089902000868050024680B0024A9
:10037000680700246807002453EA020C00F0698033
:100380002DE9F04B4FF00006002B1FBFB3FA83F5A9
:1003900003FA05F424FA05F65E4012BF1643B2FADA
:1003A00082F502FA05F4C5F120051EBF22FA05FC0C
:1003B00044EA0C04203556EA044C4FEA144418BFB2
:1003C000641C4FF000084FF00009904271EB030CE1
:1003D00039D3002919BFB1FA81F701FA07F6B0FA4B
:1003E00080F700FA07F6C7F120071EBF20FA07FCC6
:1003F00046EA0C062037B6FBF4FCA7EB0507103FD6
:1004000007F01F0BCBF120060CFA0BFB2CFA06F6BB
:1004100044BFB3460026202FA4BF5E464FF0000B1A
:100420005BEA060C08BF4FF0010B19EB0B09ABFBA5
:10043000027C48EB0608C01B06FB02CC0BFB03CC7E
:1004400071EB0C01C1E70B46024641464846BDE848
:10045000F08B13B54FF000004FF00001AFF30080B8
:10046000BDE81C40704710B5203AC0F00B80B1E8E1
:100470001850203AA0E81850B1E81850A0E81850D9
:10048000BFF4F5AF5FEA027C24BFB1E81850A0E8E2
:10049000185044BF18C918C0BDE810405FEA827CFC
:1004A00024BF51F8043B40F8043B08BF7047D20713
:1004B00028BF31F8023B48BF11F8012B28BF20F8B4
:1004C000023B48BF00F8012B7047704770477047E8
:1004D000754600F02BF8AE4605006946534620F0FD
:1004E0000700854618B020B5FFF734FFBDE820406F
:1004F0004FF000064FF000074FF000084FF0000BE0
:1005000021F00701AC46ACE8C009ACE8C009ACE892
:10051000C009ACE8C0098D46704710B50446AFF37A
:1005200000802046BDE81040FFF7FFBE004870473E
:100530000805002410B51448144908604FF44030F1
:100540004860002111488160C160042101610021DF
:10055000017541750121816100210177016201214D
:10056000416200218162012180F838100903016392
:10057000002180F83910C16201F052FF00221146BB
:10058000024801F07FFB10BD00200240D003002490
:1005900070B5044600252068806800F0030001283B
:1005A00006D12068006800F0010008B1012000E0D9
:1005B000002080B32068806800F00D00012800D181
:1005C00000E0002050B100BF2068806840F00200C9
:1005D0002168886003202168086009E0606D40F0B0
:1005E00010006065A06D40F00100A065012070BDA5
:1005F00002F060FE05460FE002F05CFE401B0228A0
:100600000AD9606D40F010006065A06D40F00100F7
:10061000A0650120EBE705E02068806800F001009C
:100620000028E9D10020E2E770B5044600252068E3
:10063000806800F00300012806D12068006800F0FF
:10064000010008B1012000E0002088BB206880681C
:100650001C49084008B9012000E0002048B9606D3D
:1006600040F010006065A06D40F00100A065012021
:1006700070BD2068806840F001002168886002F049
:1006800019FE054615E02068806840F001002168E9
:10069000886002F00FFE401B02280AD9606D40F00E
:1006A00010006065A06D40F00100A0650120DFE74B
:1006B00005E02068006800F001000028E3D0002079
:1006C000D6E700003F00008008B500BF0D48006875
:1006D00040F020000B4908600846006800F0200048
:1006E000009000BF00BF40F2FF10074908600120E2
:1006F000486088600320C860044802F0A7FC01F04D
:10070000D1F908BDE0440258F40400240014025852
:1007100000BFFEE710B507F013FB07F0C3FA03486C
:10072000006840F004000149086010BD9CEF00E043
:1007300010B52DED048B84B060A0006803904CF2DE
:100740005030DFED5F0AB1EE040A00F059FB0120E2
:1007500007F07CFB052009F0C5FA0121084607F0E7
:1007600099FB00224021574802F09EFD022009F02B
:10077000B9FA01220E214CF25030DFED510A9FED03
:10078000520A07F0A5F8052009F0ACFA002415E09C
:1007900040F27A304FF4B47140F212234A00CDE9AE
:1007A000001003A9012006F079FA002240214548F3
:1007B00002F07AFD022009F095FA641C052CE7DBB3
:1007C00001210E2007F066FB0E22C7214FF6FF70B5
:1007D00007F058FF1E2009F085FA00240CE007F00E
:1007E0000DFEF0EE408A07F063FEB0EE409A07F08F
:1007F000B9FEB0EE408A641C052CF0DB9FED330A95
:10080000F4EEC08AF1EE10FA22DC9FED310AB4EE6C
:10081000C09AF1EE10FA1BDC9FED2C0AB4EEC08AF0
:10082000F1EE10FA14DC9FED2B0AF4EEC08AF1EE23
:1008300010FA0DD3B3EE0F0AB4EEC09AF1EE10FA2F
:1008400006D39FED240AB4EEC08AF1EE10FA02D26C
:10085000042007F0B5FA204801680068401C1E4AD1
:1008600010601E4800EB8100C0ED008A1046016850
:100870000068401C1060194800EB810080ED009A70
:10088000104601680068401C1060144800EB8100AD
:1008900080ED008A00211F2007F0FCFA00220E21C3
:1008A0004CF25030DFED060A9FED050A07F010F814
:1008B00007F0B2FE04B0BDEC048B10BD55AA550084
:1008C0000000000000080258333353400000884203
:1008D0000000104200008042000000248401002437
:1008E00010B541F28830DFED390A9FED390A06F084
:1008F0007DFC02220521DFED370A9FED370A01203A
:1009000006F0DEFE02220521DFED320A9FED320AFB
:10091000104606F0D5FE02220521DFED2E0A9FEDDE
:100920002E0A032006F0CCFE02220521DFED290A63
:100930009FED290A042006F0C3FE41F28830DFED66
:10094000230A9FED260A06F051FC022009F0CAF99D
:1009500002220521DFED1F0A9FED1F0A084606F05F
:10096000AFFE41F28830DFED190A9FED180A06F05C
:100970003DFC4CF25030DFED150A9FED140A00F0FB
:100980003FFA012007F062FA052009F0ABF941F2C5
:100990008830DFED0E0A9FED120A06F027FC0222D6
:1009A0000521DFED100A9FED100A012006F088FEF8
:1009B00002220521DFED0B0A9FED0B0A084606F027
:1009C0007FFE002007F042FA10BD0000000000008A
:1009D000000048C3CDCC4CBF9A9999BE0000C8C353
:1009E000000048439A99993ECDCC4C3F10B52DED6F
:1009F000048BB0EE408AB7EEC80AB0EE409B9FED84
:100A0000090B29EE000BB0EE409BBCEEC90B10EEBB
:100A1000103A00221146054802F070F9BDEC048B33
:100A200010BD0000000000000000A0409804002459
:100A300010B52DED048BB0EE408AB7EEC80AB0EECB
:100A4000409B9FED0B0B29EE000BB1EE081B80EED7
:100A5000012BB0EE429BBCEEC90B10EE103A002207
:100A60001146054802F04AF9BDEC048B10BD0000A8
:100A7000000000000000B0409804002410B52DEDE7
:100A8000048BB0EE408AB7EEC80AB0EE409B9FEDF3
:100A90000B0B29EE000BB1EE081B80EE012BB0EE24
:100AA000429BBCEEC90B10EE103A00221021054803
:100AB00002F024F9BDEC048B10BD00000000000022
:100AC0000000B0409804002410B510481049086098
:100AD000084602F0CDF800200E49486002208860E8
:100AE00000220B4802F01EF800200B49486002204B
:100AF00088601022064802F015F80021044802F030
:100B000013F91021024802F00FF910BD00740040E3
:100B100098040024AC040024D00400247047000092
:100B200070B500254CF25030DFED700AB1EE000ACE
:100B300006F00CFC0121052006F056FA052009F00C
:100B4000D1F80121084607F0A5F94CF25030DFED4D
:100B5000670AB1EE000A00F053F9012007F076F9B8
:100B6000052009F0BFF809220F21112007F008FC29
:100B70000021052006F038FA052009F0B3F801211C
:100B8000102007F087F90020594908700122002140
:100B90004FF6FF7007F01CFB07E06D1C052009F005
:100BA000A1F81E2D01DD002505E05148007800F078
:100BB00080000028F1D000BF4E48408900EB80043F
:100BC00000EE104AB8EEC00A4B4801680068401CAD
:100BD000494A1060494800EB810080ED000A00207E
:100BE000434908700021102007F054F9F12C02DB72
:100BF000B4F5B77F02DD062007F0E2F84048007840
:100C000000285CD1F12C51DDB4F5937F4EDC00213E
:100C1000012000F087FB0F2009F064F8002108464E
:100C200000F080FB0F2009F05DF80121052006F09F
:100C3000DBF909220F21112007F0A2FB052009F0A2
:100C400051F80021052006F0CFF90121102007F00E
:100C500021F9012200214FF6FF7007F0B9FA0025B3
:100C600007E06D1C022009F03DF81E2D01DD002576
:100C700005E01F48007800F080000028F1D000BF98
:100C80001C48408900EB800400EE104AB8EEC00A10
:100C9000194801680068401C174A1060174800EBAB
:100CA000810080ED000A002011490870B4F5937F9F
:100CB00002DDB4F5B77F02DD052007F081F807F00B
:100CC00039FA06F045F90F4805F092FA06F06AF98C
:100CD0004CF25030DFED050A9FED040A06F036FBBA
:100CE0000021112007F0D6F870BD000000000000C0
:100CF000A0000024C003002400000024840100247C
:100D0000D10000240003002470B504460D46002DD8
:100D100039D0092C36D2DFE804F035050B11171D48
:100D200023292F0001221146344802F0BDFA29E0A0
:100D300001220221314802F0B7FA23E00122042106
:100D40002E4802F0B1FA1DE0012208212B4802F0E2
:100D5000ABFA17E001221021284802F0A5FA11E0B1
:100D600001222021254802F09FFA0BE001224021B8
:100D7000224802F099FA05E0012280211F4802F082
:100D800093FA00BF39E0092C36D2DFE804F03505CC
:100D90000B11171D23292F0000220121174802F0F3
:100DA00083FA29E000220221144802F07DFA23E0B0
:100DB00000220421114802F077FA1DE000220821E8
:100DC0000E4802F071FA17E0002210210B4802F0E1
:100DD0006BFA11E000222021084802F065FA0BE0CE
:100DE00000224021054802F05FFA05E00022802140
:100DF000024802F059FA00BF00BF70BD0018025847
:100E000010B52DED028BF0EE408AB0EE608A0446FC
:100E1000F5EEC08AF1EE10FA0BDB012211028D48CB
:100E200002F042FA00224FF400718A4802F03CFAC4
:100E30000FE0F5EEC08AF1EE10FA0AD200224FF46C
:100E40008071844802F030FA01225102814802F098
:100E50002BFAB5EEC08AF1EE10FA0FD10022012173
:100E60007C4802F021FA002202217A4802F01CFAA2
:100E700000220421774802F017FA49E0B7EEC80AC9
:100E8000B5EE001BB4EE410BF1EE10FA0FD10122CA
:100E90001146704802F008FA002202216D4802F063
:100EA00003FA002204216B4802F0FEF930E0B7EEAD
:100EB000C80AB6EE001BB4EE410BF1EE10FA0FD1EA
:100EC00000220121634802F0EFF90122022161486A
:100ED00002F0EAF9002204215E4802F0E5F917E089
:100EE000B7EEC80AB6EE081BB4EE410BF1EE10FAED
:100EF0000ED100220121574802F0D6F9002202212A
:100F0000544802F0D1F901220421524802F0CCF9F0
:100F10002046B4F5FA7F44D004DC05280DD03228F1
:100F200024D124E0A0F598508838002853D0A0F5AB
:100F30002F40C8380028F3D167E000220821454837
:100F400002F0B2F901221021424802F0ADF901226B
:100F50002021404802F0A8F9012240213D4802F03A
:100F6000A3F9012280213B4802F09EF967E00122AB
:100F70000821384802F098F900221021354802F083
:100F800093F901222021334802F08EF901224021F9
:100F9000304802F089F9012280212E4802F084F9BC
:100FA0004DE0012208212B4802F07EF90122102198
:100FB000284802F079F900222021264802F074F92D
:100FC00001224021234802F06FF9012280212148AB
:100FD00002F06AF933E0012208211E4802F064F9A8
:100FE000012210211B4802F05FF90122202119483B
:100FF00002F05AF900224021164802F055F9012268
:101000008021144802F050F919E00122082111480A
:1010100002F04AF9012210210E4802F045F901229E
:1010200020210C4802F040F901224021094802F039
:101030003BF900228021074802F036F900BF00BFCB
:10104000052008F04FFEB0EE680AFFF717FDBDEC73
:10105000028B10BD0010025870B52DED048BB0B09E
:101060000446F0EE408AB0EE609A0E4615462046E1
:10107000B4F5FA7F44D004DC05280DD0322824D101
:1010800024E0A0F598508838002853D0A0F52F40D0
:10109000C8380028F3D167E000220821664802F032
:1010A00003F901221021644802F0FEF801222021F8
:1010B000614802F0F9F8012240215F4802F0F4F89B
:1010C000012280215C4802F0EFF867E0012208214C
:1010D000594802F0E9F800221021574802F0E4F8DC
:1010E00001222021544802F0DFF801224021524819
:1010F00002F0DAF8012280214F4802F0D5F84DE0E5
:10110000012208214C4802F0CFF8012210214A4860
:1011100002F0CAF800222021474802F0C5F8012257
:101120004021454802F0C0F801228021424802F0E7
:10113000BBF833E0012208213F4802F0B5F8012254
:1011400010213D4802F0B0F8012220213A4802F077
:10115000ABF800224021384802F0A6F80122802195
:10116000354802F0A1F819E001220821324802F0C6
:101170009BF801221021304802F096F8012220212C
:101180002D4802F091F8012240212B4802F08CF802
:1011900000228021284802F087F800BF00BF052008
:1011A00008F0A0FD5422254917A8FFF75CF9234851
:1011B000406D2C902148806D2D902049C86D096E9E
:1011C000CDE92E01082004215422CDE915101BA9D8
:1011D0006846FFF748F917A80FC800F025FDA0F5ED
:1011E000FE40FF3800EE100AF8EEC00A00EE104A8A
:1011F000B8EEC00A20EE800ADFED110A80EE208AE8
:10120000104801680068401C0E4A10600E4800EB50
:10121000810080ED008AB4EEE88AF1EE10FA04DC79
:10122000B4EEC98AF1EE10FA02D2284606F0C8FDE3
:1012300030B0BDEC048B70BD00100258D003002408
:1012400000FEFF4600000024840100243EB52FA0CC
:10125000006802904CF25030DFED2D0AB1EE040A26
:10126000FFF7CEFD012006F0F1FD022008F03AFD67
:10127000002415E040F27A304FF4B47140F21223AA
:101280004A00CDE9001002A9012005F007FD002267
:101290004021204802F008F8052008F023FD641CD6
:1012A000052CE7DB022008F01DFD4CF25030DFED8D
:1012B000180A9FED190A06F049F808230522DFED08
:1012C000170A9FED170A4CF25031022006F08CF9F4
:1012D00008230522DFED110A9FED110A4CF250316F
:1012E000032006F081F908230522DFED0C0A9FEDAB
:1012F0000C0A4CF25031042006F076F9002101204E
:1013000006F0C8FD052008F0EDFC3EBDFFFFFF0024
:101310000000000000080258AE47813F00A00C46C4
:1013200000E87D4670B505460C4635B1012D17D055
:10133000022D1BD0032D25D11EE000224FF4007199
:10134000184801F0B1FF00224FF48061154801F008
:10135000ABFF00224FF40061124801F0A5FF11E03D
:10136000012251020F4801F09FFF0BE00122910280
:101370000C4801F099FF05E00122D102094801F073
:1013800093FF00BF00BF2CB101221102054801F0FC
:101390008BFF05E000224FF48071024801F084FFCA
:1013A00070BD00000020025870B500254CF250308E
:1013B000DFED2F0AB1EE040AFFF722FD012006F04F
:1013C00045FD0121112006F065FD012008F08AFC91
:1013D00009220F21112006F0D3FF012008F082FC22
:1013E000012200214FF6FF7006F0F2FE07E06D1CAF
:1013F000022008F077FC1E2D01DD002505E01D48C8
:10140000007800F080000028F1D000BF042413E031
:10141000194830F8140000EB8000B0F50C7F07DBB2
:10142000154830F8140000EB8000B0F5377F02DD7E
:10143000072006F0C5FC641C072CE9DB0E48408938
:1014400000EB800000EE100AB8EEC00A0B480168FD
:101450000068401C094A1060094800EB810080EDDB
:10146000000A002003490870052008F03BFC70BD0D
:1014700000000000A0000024B003002400000024AD
:101480008401002408B500BF7148006840F00100E5
:101490006F4908600846006800F00100009000BF36
:1014A00000BF00BF0846006840F002000860084620
:1014B000006800F00200009000BF00BF00BF0846B7
:1014C000006840F0040008600846006800F004006E
:1014D000009000BF00BF00BF0846006840F0080051
:1014E00008600846006800F00800009000BF00BFD8
:1014F00000BF0846006840F0100008600846006819
:1015000000F01000009000BF00BF00BF0846006858
:1015100040F0200008600846006800F020000090BD
:1015200000BF00BF00BF0846006840F040000860F0
:101530000846006800F04000009000BF00BF00BFF8
:101540000846006840F0800008600846006800F027
:101550008000009000BF00BF00BF0846006840F454
:10156000807008600846006800F48070009000BF3A
:1015700000BF4FF6FF70374908600120486088605F
:101580000320C860344801F061FD00F06BF94FF4AE
:101590000F50304908600120486088600320C8600F
:1015A0002E4801F053FD00F0B1F94FF6FF702949C4
:1015B00008600120486088600320C860284801F066
:1015C00045FD00F0C3F94FF6FF7022490860012085
:1015D000486088600320C860224801F037FD00F0B1
:1015E0000DFA40F2FF101B49086001204860886036
:1015F0000320C8601C4801F029FD00F053FA4FF4A5
:101600000070144908600020486088600320C860AA
:10161000154801F01BFD4FF6FF700E4908600120D0
:10162000486088600320C860104801F00FFD00F09A
:101630006BFA4FF6FF700749086001204860886028
:101640000320C8600A4801F001FD00F089FA08BDD6
:10165000E0440258F4040024000402580008025830
:10166000000C0258001002580014025800180258CA
:101670000020025808B500BF7248006840F0010021
:10168000704908600846006800F00100009000BF43
:1016900000BF00BF0846006840F00200086008462E
:1016A000006800F00200009000BF00BF00BF0846C5
:1016B000006840F0040008600846006800F004007C
:1016C000009000BF00BF00BF0846006840F008005F
:1016D00008600846006800F00800009000BF00BFE6
:1016E00000BF0846006840F0100008600846006827
:1016F00000F01000009000BF00BF00BF0846006867
:1017000040F0400008600846006800F0400000908B
:1017100000BF00BF00BF0846006840F080000860BE
:101720000846006800F08000009000BF00BF00BFC6
:101730000846006840F4807008600846006800F4BD
:101740008070009000BF00BF41F28832002108463F
:1017500005F0FCFD032008F0C5FA4CF250320021E0
:101760000846FFF74DFB032008F0BCFA002006F006
:101770006DFB4FF6FF7034490860012048608860B7
:101780000320C860314801F061FC00F06BF84FF4B1
:1017900070702D4908600120486088600320C8608F
:1017A0002B4801F053FC00224021294801F07CFD28
:1017B00000228021264801F077FD00224FF480713D
:1017C000234801F071FD00224FF40071204801F020
:1017D0006BFD4FF6FF701C4908600120486088606F
:1017E0000320C8601B4801F031FC00F0AFF84FF651
:1017F000FF70154908600120486088600320C860B8
:10180000154801F023FC00F0F9F84FF6FF700E497F
:1018100008600120486088600320C8600F4801F01C
:1018200015FC00F071F94FF6FF70074908600120C0
:10183000486088600320C860094801F007FC00F098
:101840008FF908BDE0440258F40400240004025853
:1018500000080258000C02580010025800180258E4
:101860000020025810B501221146274801F01CFD46
:1018700001220221244801F017FD012204212248FF
:1018800001F012FD012208211F4801F00DFD012287
:1018900010211D4801F008FD012220211A4801F005
:1018A00003FD01224021184801F0FEFC01228021A5
:1018B000154801F0F9FC01221102134801F0F4FC73
:1018C00001225102104801F0EFFC012291020E4862
:1018D00001F0EAFC0122D1020B4801F0E5FC0122F3
:1018E0001103094801F0E0FC01225103064801F010
:1018F000DBFC01229103044801F0D6FC0122D10354
:10190000014801F0D1FC10BD0004025810B50022BE
:1019100040210D4801F0C8FC002280210A4801F056
:10192000C3FC00224FF48071074801F0BDFC002287
:101930004FF40071044801F0B7FC01225103024842
:1019400001F0B2FC10BD00000008025810B50122E1
:101950001146294801F0A8FC01220221264801F085
:10196000A3FC01220421244801F09EFC012208214D
:10197000214801F099FC012210211F4801F094FC3C
:10198000012220211C4801F08FFC012240211A482D
:1019900001F08AFC01228021174801F085FC002219
:1019A0004FF48071144801F07FFC00224FF4007165
:1019B000114801F079FC00224FF480610E4801F0DB
:1019C00073FC0122D1020C4801F06EFC01221103CC
:1019D000094801F069FC01225103074801F064FC49
:1019E00001229103044801F05FFC0122D103024867
:1019F00001F05AFC10BD0000000C025810B5002286
:101A00000121274801F050FC00220221244801F066
:101A10004BFC00220421224801F046FC012208214F
:101A20001F4801F041FC012210211D4801F03CFC3F
:101A3000012220211A4801F037FC012240211848D8
:101A400001F032FC01228021154801F02DFC012219
:101A50001102134801F028FC01225102104801F044
:101A600023FC012291020E4801F01EFC0122D1024A
:101A70000B4801F019FC01221103094801F014FC84
:101A800001225103064801F00FFC01229103044892
:101A900001F00AFC0122D103014801F005FC10BD50
:101AA0000010025810B500220121164801F0FCFB7D
:101AB00000220221134801F0F7FB00220421114803
:101AC00001F0F2FB002208210E4801F0EDFB00229C
:101AD00010210C4801F0E8FB00222021094801F008
:101AE000E3FB00224021074801F0DEFB00228021B9
:101AF000044801F0D9FB01221102024801F0D4FB95
:101B000010BD00000014025810B500220121134836
:101B100001F0CAFB00220221104801F0C5FB00229F
:101B200004210E4801F0C0FB002208210B4801F0FF
:101B3000BBFB00221021094801F0B6FB0022202146
:101B4000064801F0B1FB00224021044801F0ACFB43
:101B500000228021014801F0A7FB10BD00180258A7
:101B600010B5012211461F4801F09EFB01220221FF
:101B70001C4801F099FB012204211A4801F094FB52
:101B800001220821174801F08FFB0122102115487E
:101B900001F08AFB01222021124801F085FB01227D
:101BA0004021104801F080FB012280210D4801F006
:101BB0007BFB00224FF480710A4801F075FB002284
:101BC0004FF40071074801F06FFB00224FF4806171
:101BD000044801F069FB00224FF40061014801F064
:101BE00063FB10BD002002580FB410B588B0239CD1
:101BF000019401200290072003900020049005909A
:101C0000069001A90AA800F09BF80AA800F0DCFEE3
:101C10000A210AA800F002FE0AA800F0FDFB80B22B
:101C200008B010BC5DF814FB0FB4F0B5AFB04D9F19
:101C30004E9C002500261CE0542234A916A8FEF76D
:101C400012FC49982B904A982C904B984C9954220E
:101C50001597CDE92D011AA96846FEF704FC16A8D0
:101C60000FC8FFF7C1FF0544052008F03BF8701CC2
:101C7000C6B2A642E0DBB5FBF4F080B22FB0F0BCF8
:101C80005DF814FB2DE9F04104460D461646002789
:101C9000B84600BF94F85000012802D10220BDE8E8
:101CA000F081012084F8500000BF2046FEF770FC50
:101CB0000746CFBB606D20F4885040F0020060659D
:101CC0002068806820F08040304321688860206868
:101CD000806820F48030284321688860206880680C
:101CE00040F000402168886011E008F10108B8F573
:101CF0007A4F0CD3606D20F0020040F01000606558
:101D000000BF002084F8500000BF0120C7E7206812
:101D1000806800F000400028E7D1606D20F00200EC
:101D200040F00100606504E0FFE7606D40F01000E6
:101D3000606500BF002084F8500000BF3846AEE761
:101D4000F8B5024600250020009092F839000128DD
:101D500000D100E000BFC868B0F1804F00D00AE0B9
:101D6000FE4E1068B04200D105E0FD4E1068B04252
:101D700000D100E000BF00BF92F85000012801D15F
:101D80000220F8BD012082F8500000BF1068806872
:101D9000C0F3800000287DD11068C0690F7801264B
:101DA000BE4030431668F061486805281CD21068B0
:101DB000066B08794FF4F86797FAA7F7B7FA87F731
:101DC00078431F27874026EA07000F794FF4F86C05
:101DD0009CFAACFCBCFA8CFC07FB0CF70E68BE400E
:101DE00030431668306363E048680A281ED21068E2
:101DF000466B0879401F4FF4F86797FAA7F7B7FAD0
:101E000087F778431F27874026EA07000E79761F59
:101E10004FF4F86C9CFAACFCBCFA8CFC06FB0CF69C
:101E20000F68B74038431668706341E048680F2870
:101E30001ED21068866B08790A384FF4F86797FA53
:101E4000A7F7B7FA87F778431F27874026EA0700E6
:101E50000E790A3E4FF4F86C9CFAACFCBCFA8CFC90
:101E600006FB0CF60F68B74038431668B0631FE0F6
:101E70001068C66B08790F384FF4F86797FAA7F720
:101E8000B7FA87F778431F27874026EA07000E79BD
:101E90000F3E00E0A5E24FF4F86C9CFAACFCBCFAF3
:101EA0008CFC06FB0CF60F68B74038431668F063ED
:101EB0001068806800F00C0008B1012000E00020EC
:101EC000002874D108680A281DD31068866908782C
:101ED0000A38382797FAA7F7B7FA87F7784307271A
:101EE000874026EA07000E780A3E4FF0380C9CFA2D
:101EF000ACFCBCFA8CFC06FB0CF68F68B740384390
:101F00001668B06119E0106840690E78382797FAB2
:101F1000A7F7B7FA87F77E430727B740B8430F788C
:101F20004FF0380C9CFAACFCBCFA8CFC07FB0CF7AD
:101F30008E68BE4030431668706148691668F6685E
:101F4000C6F38206760000FA06F40869012806D076
:101F500002282DD0032854D0042874D17BE01068C7
:101F6000006E00F000464FF0F84797FAA7F7B7FA6F
:101F700087F70868B8402043064310680666106873
:101F8000006920F400600E7E304316683061487EA0
:101F900030B11068006E40F000401668306605E011
:101FA0001068006E20F0004016683066CDE0CDE08D
:101FB0001068406E00F000464FF0F84797FAA7F718
:101FC000B7FA87F70868B8402043064310684666AA
:101FD0001068006920F480500E7E40EA46001668C2
:101FE0003061487E30B11068406E40F000401668A5
:101FF000706605E01068406E20F00040166870665C
:10200000A3E01068806E00F000464FF0F84797FAA2
:10201000A7F7B7FA87F70868B84020430643106867
:1020200086661068006920F400500E7E40EA860043
:1020300016683061487E38B11068806E40F000400C
:102040001668B06606E02FE01068806E20F0004051
:102050001668B06679E01068C06E00F000464FF078
:10206000F84797FAA7F7B7FA87F70868B840204308
:1020700006431068C6661068006920F480400E7E32
:1020800040EAC60016683061487E30B11068C06E04
:1020900040F000401668F06605E01068C06E20F061
:1020A00000401668F06650E01068006E00F0F846D8
:1020B0004FF0F84797FAA7F7B7FA87F70868B840DC
:1020C000864205D11068006E20F000401668306628
:1020D0001068406E00F0F8464FF0F84797FAA7F7FF
:1020E000B7FA87F70868B840864205D11068406E95
:1020F00020F00040166870661068806E00F0F846A8
:102100004FF0F84797FAA7F7B7FA87F70868B8408B
:10211000864205D11068806E20F000401668B066D7
:102120001068C06E00F0F8464FF0F84797FAA7F72E
:10213000B7FA87F70868B840864205D11068C06EC4
:1021400020F000401668F06600BF00BF106880688D
:1021500000F0030001280BD1106803E00060025872
:1021600000200240006800F0010008B1012000E0FA
:10217000002000287ED1C868B0F1804F0AD01068D6
:10218000D0F8C0000F780126BE40B0431668C6F8EC
:10219000C00047E01068D0F8C0000F780126BE40AC
:1021A00030431668C6F8C000086809281DD31068B7
:1021B000866908780938382797FAA7F7B7FA87F7B2
:1021C00078430727874026EA07000E78093E4FF03C
:1021D000380C9CFAACFCBCFA8CFC06FB0CF68F6845
:1021E000B74038431668B0611CE01068466908784B
:1021F000401C382797FAA7F7B7FA87F778430727DD
:10220000874026EA07000E78761C4FF0380C9CFABF
:10221000ACFCBCFA8CFC06FB0CF68F68B74038436C
:1022200016687061754E1068B04203D0744E106825
:10223000B04201D1734B00E0734B0868122803D100
:10224000986800F4000070B10868112803D19868FC
:1022500000F0807038B1086813288BD1986800F4BA
:102260008000002886D11068806800F003000128F3
:1022700008D100E0AEE01068006800F0010008B18D
:10228000012000E0002000287ED15C4E1068B042A2
:1022900022D15B480830006800F00300012806D115
:1022A0005748006800F0010008B1012000E000205C
:1022B00070B95648806800F00300012806D15348E1
:1022C000006800F0010008B1012000E0002008B122
:1022D000012049E0002047E0494E1068B04221D17A
:1022E0004648806800F00300012806D14348006892
:1022F00000F0010008B1012000E0002070B943485F
:10230000806800F00300012806D14048006800F012
:10231000010008B1012000E0002008B101200FE019
:1023200000200DE03548806800F00300012806D148
:102330003248006800F0010008B1012000E00020F0
:1023400078B92F480830006800F00300012806D152
:102350002B48006800F0010008B1012000E00020D7
:1023600008B1012000E0002070B9086812281AD1D5
:10237000264E1068B04216D1986840F4000098606C
:1023800023480068234E00E025E0B0FBF6F0C0EBE8
:102390000010C000009002E00098401E00900098DD
:1023A0000028F9D122E00868112808D1174E1068DA
:1023B000B04204D1986840F08070986016E00868D8
:1023C000132813D1114E1068B0420FD1986840F411
:1023D000800098600AE0506D40F0200050650125B3
:1023E00004E0506D40F020005065012500BF002042
:1023F00082F8500000BF2846C3E4000000200240DD
:10240000002102400023024000630258006002588D
:102410000400002480841E0001460868006C704798
:10242000F8B5044600270026002000900CB90120D2
:10243000F8BDE06818B1207F012800D100BF606DB1
:1024400030B9204600F098F90020A06584F85000CB
:102450002068806800F0005028B12068806820F073
:102460000050216888602068806800F08050A8B91A
:102470002068806840F0805021688860B548006816
:10248000B549B0FBF1F000EB80004000009002E0A5
:102490000098401E009000980028F9D120688068BC
:1024A00000F0805040B9606D40F010006065A06D94
:1024B00040F00100A0650127606D00F010000028C9
:1024C0006FD120688068C0F380000028F8D1606D6B
:1024D00040F002006065A1492068884203D0A0490D
:1024E0002068884201D19F4D00E09F4D20688068A0
:1024F00000F00300012806D12068006800F0010008
:1025000008B1012000E00020002877D1934920681D
:10251000884222D192480830006800F00300012868
:1025200006D18F48006800F0010008B1012000E0EA
:10253000002070B98D48806800F00300012806D1A2
:102540008A48006800F0010008B1012000E0002086
:1025500008B101204BE0002049E081492068884211
:1025600022D17E48806800F00300012806D17B4814
:10257000006800F0010008B1012000E0002070B9FF
:102580007A48806800F00300012806D17748006887
:1025900000F0010008B1012000E0002010B101208E
:1025A00010E0D0E000200DE06C48806800F00300EF
:1025B000012806D16948006800F0010008B1012037
:1025C00000E0002078B966480830006800F0030099
:1025D000012806D16248006800F0010008B101201E
:1025E00000E0002010B1012001E007E0002028B940
:1025F000A86820F47C1061680843A860607D4FF4EF
:10260000005191FAA1F1B1FA81F18840216B0843A0
:10261000A1680843217F4FF4803292FAA2F2B2FA05
:1026200082F2914040EA0106207F012809D1206A08
:10263000401E4FF4602191FAA1F1B1FA81F1884076
:102640000643606A012805D0A06A18B1D4E90901DF
:10265000084306432068C068454908403043216864
:10266000C8602068806800F00C0008B1012000E01C
:10267000002070BB207D4FF4804191FAA1F1B1FAA6
:1026800081F18840E16A40EA01062068C06844F2AE
:102690000301884330432168C86094F83900012859
:1026A00018D1606A012801D0A06A00B900BFA08FCC
:1026B000012141EA0041206C0843616C0843A16C90
:1026C0000843216809692B4A1140084321680861C1
:1026D00006E01EE02068006920F001002168086122
:1026E0002068006920F07040616B08432168086130
:1026F00094F83800012806D12068806840F4807082
:102700002168886005E02068806820F48070216876
:102710008860E068012809D12068006B20F00F0074
:10272000A169491E08432168086305E02068006B21
:1027300020F00F0021680863606D20F0020040F077
:102740000100606504E0606D40F0100060650127E5
:1027500038466DE60400002480841E0000200240FC
:10276000002102400023024000630258006002582A
:1027700003C0F0FF1EF800FC10B5B6B0044600BF61
:102780002348006840F0200021490860084600689E
:1027900000F02000019000BF00BF00BF1C480830BF
:1027A000006840F001001A490831086008460068D6
:1027B00000F00100019000BF00BF00BF08460068A4
:1027C00040F0040008600846006800F00400019032
:1027D00000BF00BF4FF40020029080102A9002A892
:1027E00001F092F840203190032032900020339085
:1027F00031A9084800F02AFC1020319003203290C3
:102800000020339031A9044800F020FC36B010BD00
:10281000D844025800000258000802582DE9F05F21
:1028200004460D464FF000090027B8464FF0010B53
:102830002069082801D108273FE05F4920688842C5
:1028400003D05E492068884214D15D48006800F0DA
:102850001F0068B15A48006800F01F00052807D023
:102860005748006800F01F00092801D0012002E04D
:10287000002000E0002058B92068C06800F0010086
:10288000D0B1606D40F0200060650120BDE8F09F90
:102890004B4E083EB06800F44040B0F5004F05D004
:1028A000B06800F44040B0F5404F05D1606D40F095
:1028B000200060650120E9E7042700F0FBFC814669
:1028C00013E0681C88B12DB100F0F4FCA0EB090006
:1028D000A8420AD9606D40F00400606500BF002086
:1028E00084F8500000BF0320D0E72068006838401B
:1028F0000028E6D02068006800F0080008B94FF012
:10290000000B2D492068884203D02E492068884258
:1029100001D1012013E02A48006800F01F0058B1DF
:102920002748006800F01F00052805D024480068EB
:1029300000F01F00092801D1012000E0002018B19B
:102940002068D0F80C800DE01B492068884203D035
:102950001C492068884201D1206800E01648824660
:10296000DAF80C80082F03D108202168086005E000
:1029700008F4804010B9042021680860606D40F4BC
:1029800000706065BBF1000F13D02068C06800F4D0
:10299000406070B908F4005058B9606D20F4807040
:1029A0006065606D00F4805018B9606D40F0010002
:1029B000606500206AE7000000200240002102401C
:1029C000082302400060025870B5044600252068C4
:1029D0008068C0F38000002872D100BF94F85000D6
:1029E000012801D1022070BD012084F8500000BFF1
:1029F0002046FDF719FE0546002D70D1606D00F4EC
:102A0000805020B1A06D20F00600A06501E00020FC
:102A1000A065606D40F60161884340F48070606598
:102A20003C492068884203D03B492068884201D154
:102A3000012007E03948006800F01F0008B90120B4
:102A400000E0002018B1606D20F4801060651C204B
:102A5000216808602F492068884203D030492068E7
:102A6000884201D1012013E02C48006800F01F00CB
:102A700058B12A48006800F01F00052805D02748F3
:102A8000006800F01F00092801D1012000E00020AB
:102A9000B8B12068C06800F0007028B1606D20F403
:102AA000005040F48050606500BF002084F8500062
:102AB00000BF2068806840F004002168886026E03C
:102AC00024E0606D40F480106065124920688842FF
:102AD00003D013492068884202D1206801E010E049
:102AE0000C480646F06800F0007028B1606D20F4D4
:102AF000005040F48050606500BF002084F8500012
:102B000005E000BF002084F8500000E002252846C0
:102B100069E7000000200240002102400823024033
:102B2000006002582DE9F04704460D46164600277E
:102B3000B846B9462869012800D100BF2868042892
:102B400000D100BF00BF6079012802D10220BDE89A
:102B5000F0870120607100BF0220207128680428DE
:102B600040D1EEB900F0A6FB81460CE000F0A2FBDC
:102B7000A0EB0900012806D9206940F00800206177
:102B800003202071E3E72068406B384908400028A3
:102B9000ECD1012000F07AF9A8692168086419E0F5
:102BA0000CE000F087FBA0EB0900012806D92069A2
:102BB00040F00800206103202071C8E72068406BC6
:102BC00000F000400028ECD1012000F05FF9A86976
:102BD00021684864E869B04021688864286AB04088
:102BE0002168C864286901280BD12068876B1F20E1
:102BF000B0408743D5F8148008FA06F007432068F0
:102C000087632068C76B0720B0408743A96828689E
:102C10000843E96840EA010808FA06F0074320681B
:102C2000C763206800684FF48041B1408843216841
:102C300008602068076840F6FE70B0408743D5F80A
:102C4000048008FA06F007432068076020680168DE
:102C5000C020B0408143206801600120207100BF86
:102C60000020607100BF00BF71E7000000800020FD
:102C700010B504460CB9012010BD207920B9002000
:102C80006071204600F008F80220207100202061C9
:102C9000012020710020EFE710B586B0044600BF88
:102CA0001448006840F00050124908600846006867
:102CB00000F00050009000BF00BF00BF0D48083872
:102CC000006840F001000B490839086008460068B8
:102CD00000F00100009000BF00BF302001900320F1
:102CE00002900020039001A9034800F0AFF906B05C
:102CF00010BD0000E84402580000025838B50446F0
:102D0000002000902068009029B902F10800009D81
:102D10002844009004E002F11400009D2844009033
:102D200000980360002038BD024600BF507901289A
:102D300001D1022070470120507100BF02201071A4
:102D40001068006801238B4018431368186061B94C
:102D50001068006800F03E00022813D11068406837
:102D600040F00100136858600CE01068006800F43F
:102D70007810B0F5003F05D11068406840F00200BF
:102D8000136858600120107100BF0020507100BF0F
:102D900000BFCFE710B504460CB9012010BD94F870
:102DA0003500022803D0802060650120F6E7344911
:102DB0002068884205D333492068884201D8012021
:102DC00000E00020C0B1042084F835002C492068C0
:102DD00088420AD32B492068884206D820680068B8
:102DE00020F001002168086048E02068006820F0B9
:102DF00001002168086041E02068006820F00E00B2
:102E0000216808601E49206888420AD31D4920684D
:102E1000884206D82068006820F001002168086018
:102E200005E02068006820F0010021680860206E3D
:102E3000006820F48070216E086094F85C10012016
:102E4000884011490860D4E919104860E06E40B12B
:102E5000E06E006820F48070E16E0860D4E91C1018
:102E6000486000BF002084F8340000BF012084F8CF
:102E70003500206D10B12046216D884700208DE778
:102E800010000240B80402400454025870B50446D1
:102E900000F010FA06462546681C10B10448007878
:102EA000054400BF00F006FA801BA842FAD370BDAB
:102EB0009C0000240348006840F0010001490860BC
:102EC0007047000020040058F0B50C460025002291
:102ED000002300219DE0012606FA01F504EA05021F
:102EE000AA427DD106684FEA410C032707FA0CF786
:102EF0003E430660CF0800F1200656F827604F07D2
:102F00004FEAD76C0F2707FA0CF7BE434FEAD10CF4
:102F100000F1200747F82C6086684FEA410C032730
:102F200007FA0CF7BE438660476801268E40B74318
:102F30004760C6684FEA410C032707FA0CF7BE4307
:102F4000C660364E8F0856F827308E07370F0F268B
:102F5000BE403340324EB04201D100262DE0314E0A
:102F6000B04201D1012628E02F4EB04201D1022605
:102F700023E02E4EB04201D103261EE02C4EB0427B
:102F800001D1042619E02B4EB04201D1052614E0F0
:102F9000294EB04201D106260FE0284EB04201D1A1
:102FA00007260AE0264EB04201D1082605E0254E4C
:102FB000B04201D1092600E00A268F073F0FBE402C
:102FC0009E4225D18E07370F0F2606FA07F3134EC0
:102FD0008F0856F827609E43104F4FEA910C00E08F
:102FE00016E047F82C60184E366896434FF0B0470D
:102FF000C7F880603E46D6F884609643C7F8846080
:103000003E46366896433E603E46766896437E600E
:10301000491C1029FFF45FAFF0BD00000804005800
:10302000000002580004025800080258000C025820
:10303000001002580014025800180258001C0258D0
:10304000002002580024025880000058F8B50246BB
:103050000B460021002600240020824D00BFFCE02A
:10306000012707FA01F61F6807EA0604B4427CD17B
:103070005F68022F02D05F68122F1AD14FEAD10C7D
:1030800002F1200757F82C004F074FEAD76C0F27A3
:1030900007FA0CF7B8434FEA417C4FEADC6C1F6932
:1030A00007FA0CF738434FEAD10C02F1200747F832
:1030B0002C0010684FEA410C032707FA0CF7B843BD
:1030C0001F7907F003074FEA410C07FA0CF7384362
:1030D00010605F68012F08D05F68022F05D05F681D
:1030E000112F02D05F68122F17D190684FEA410C60
:1030F000032707FA0CF7B8434FEA410CDF6807FAD9
:103100000CF738439060506801278F40B8431F790F
:10311000C7F300178F4038435060D0684FEA410C26
:10312000032707FA0CF7B8434FEA410C9F6807FAE8
:103130000CF73843D0605F6807F08057B7F1805FC5
:1031400095D100BF484F3F6847F00207DFF818C12C
:10315000CCF8007067463F6807F00207009700BF91
:1031600000BF424F4FEA910C00E075E057F82C0089
:103170008F074FEA177C0F2707FA0CF7B8433C4F2D
:10318000BA4201D100272DE03A4FBA4201D10127BE
:1031900028E0394FBA4201D1022723E0374FBA4223
:1031A00001D103271EE0364FBA4201D1042719E0AE
:1031B000344FBA4201D1052714E0334FBA4201D14E
:1031C00006270FE0314FBA4201D107270AE0304FFE
:1031D000BA4201D1082705E02E4FBA4201D1092792
:1031E00000E00A274FEA817C4FEA1C7C07FA0CF7C3
:1031F00038431E4F4FEA910C47F82C002868A04333
:103200005F6807F48037B7F5803F00D1204328601E
:103210006868A0435F6807F40037B7F5003F00D146
:10322000204368604FF0B0473868A0435F6807F4F8
:103230008017B7F5801F00D120434FF0B0473860AA
:103240007868A0435F6807F40017B7F5001F00D146
:1032500020434FF0B0477860491C1029FFF400AFBD
:10326000F8BD000080000058F444025808040058DB
:10327000000002580004025800080258000C0258CE
:10328000001002580014025800180258001C02587E
:103290000020025800240258024613690B400BB16B
:1032A000012000E0002070470AB1018300E0418363
:1032B0007047000001480068704700009400002437
:1032C00003480068034909780844014908607047C9
:1032D000940000249C00002410B5032000F0A2F804
:1032E0000F2000F007F808B1012010BD00F028F809
:1032F0000020FAE770B504460E4800784FF47A7162
:10330000B1FBF0F00C490968B1FBF0F5284601F07B
:103310009FFE08B1012070BD102C07D2002221466B
:10332000501E00F041F80548046001E00120F2E77A
:103330000020F0E79C0000240400002498000024F2
:103340007047000010B501460846002817DB00F062
:103350001F0301229A400B4B440943F8242000BF6D
:1033600000BF00BFBFF34F8F00BF00BF00BF00BF53
:1033700000BF00BFBFF36F8F00BF00BF00BF00BF23
:1033800010BD000080E100E001460846002809DB8E
:1033900000F01F0301229A4043099B0003F1E02340
:1033A000C3F8002100BF70472DE9F05F80460D464D
:1033B000164606F06FFC074639462A46334601F0AA
:1033C0000700C0F1070ABAF1040F02D94FF0040A4E
:1033D00001E0C0F1070AD14600F1040ABAF1070F73
:1033E00002D24FF0000A01E0A0F1030AD4464FF0E8
:1033F000010A0AFA09FAAAF1010A0AEA020A0AFA11
:103400000CFA4FF0010B0BFA0CFBABF1010B0BEAC2
:10341000030B4AEA0B042146404606F043FCBDE894
:10342000F09F000000BF00F00702064B19684FF63E
:10343000FF031940044B0B4343EA0221014B19607F
:1034400000BF70470CED00E00000FA0510B501F078
:1034500067F90949096801F470614FF4807292FAC2
:10346000A2F2B2FA82F2D140044A515CC840044947
:1034700008600846006810BD18440258EA9E00081B
:103480000400002410B501F003F90749096801F0B0
:103490007001102292FAA2F2B2FA82F2D140034AEB
:1034A000515CC84010BD000020440258EA9E00084C
:1034B00070B5014600220120002300249FED811AEF
:1034C000B0EE410A9FED7F1AF0EE410A7E4D2D6865
:1034D00005F003027C4D2D68C5F305307A4D2D1D96
:1034E0002D6805F01003784D14352D68C5F3CC0513
:1034F00015FB03F501EE105AB8EE411AB0EE410A81
:1035000022B1012A4DD0022A7DD169E06E4D283DBD
:103510002D68C5F340152DB36B4D283D2D68C5F3BF
:10352000C1066A4D25FA06F4B4FBF0F501EE105A17
:10353000F8EE411A9FED661A80EE012A624D1035B1
:103540002D68C5F3080501EE105AB8EE411A32EEA7
:10355000011AB7EE002A31EE021A21EE811AF0EEBE
:10356000410A1DE0594DB5FBF0F501EE105AF8EE99
:10357000411A9FED571A80EE012A534D10352D68E0
:10358000C5F3080501EE105AB8EE411A32EE011AE1
:10359000B7EE002A31EE021A21EE811AF0EE410A4E
:1035A0005EE04C4DB5FBF0F501EE105AB8EE412A45
:1035B0009FED471AC0EE011A434D10352D68C5F333
:1035C000080501EE105AB8EE411A31EE811AF7EEF5
:1035D000001A31EE211A22EE011AF0EE410A3FE004
:1035E0003D4DB5FBF0F501EE105AF8EE411A9FED96
:1035F000381A80EE012A344D10352D68C5F30805C0
:1036000001EE105A00E00CE0B8EE411A32EE011A59
:10361000B7EE002A31EE021A21EE811AF0EE410ACD
:103620001EE02C4DB5FBF0F501EE105AB8EE412A24
:103630009FED271AC0EE011A234D10352D68C5F3F2
:10364000080501EE105AB8EE411A31EE811AF7EE74
:10365000001A31EE211A22EE011AF0EE410A00BFE3
:1036600000BF194D10352D68C5F346256D1C01EEC0
:10367000105AB8EE411AC0EE811ABCEEE11A81ED83
:10368000001A114D10352D68C5F306456D1C01EE6D
:10369000105AB8EE411AC0EE811ABCEEE11A81ED63
:1036A000011A094D10352D68C5F306656D1C01EE34
:1036B000105AB8EE411AC0EE811ABCEEE11A81ED43
:1036C000021A70BD00000000284402580090D00388
:1036D0000000004600093D0040787D0170B50146BC
:1036E00000220120002300249FED811AB0EE410A40
:1036F0009FED7F1AF0EE410A7E4D2D6805F0030222
:103700007C4D2D68C5F305507A4D2D1D2D6805F4AF
:103710008073784D1C352D68C5F3CC0515FB03F57A
:1037200001EE105AB8EE411AB0EE410A22B1012A58
:103730004DD0022A7DD169E06E4D283D2D68C5F33C
:1037400040152DB36B4D283D2D68C5F3C1066A4D5C
:1037500025FA06F4B4FBF0F501EE105AF8EE411A22
:103760009FED661A80EE012A624D18352D68C5F36B
:10377000080501EE105AB8EE411A32EE011AB7EE02
:10378000002A31EE021A21EE811AF0EE410A1DE004
:10379000594DB5FBF0F501EE105AF8EE411A9FEDC8
:1037A000571A80EE012A534D18352D68C5F30805C8
:1037B00001EE105AB8EE411A32EE011AB7EE002AA5
:1037C00031EE021A21EE811AF0EE410A5EE04C4D14
:1037D000B5FBF0F501EE105AB8EE412A9FED471AFD
:1037E000C0EE011A434D18352D68C5F3080501EEEA
:1037F000105AB8EE411A31EE811AF7EE001A31EE86
:10380000211A22EE011AF0EE410A3FE03D4DB5FBD0
:10381000F0F501EE105AF8EE411A9FED381A80EEDD
:10382000012A344D18352D68C5F3080501EE105AEC
:1038300000E00CE0B8EE411A32EE011AB7EE002AB1
:1038400031EE021A21EE811AF0EE410A1EE02C4DF3
:10385000B5FBF0F501EE105AB8EE412A9FED271A9C
:10386000C0EE011A234D18352D68C5F3080501EE89
:10387000105AB8EE411A31EE811AF7EE001A31EE05
:10388000211A22EE011AF0EE410A00BF00BF194DC5
:1038900018352D68C5F346256D1C01EE105AB8EE9B
:1038A000411AC0EE811ABCEEE11A81ED001A114DE9
:1038B00018352D68C5F306456D1C01EE105AB8EE9B
:1038C000411AC0EE811ABCEEE11A81ED011A094DD0
:1038D00018352D68C5F306656D1C01EE105AB8EE5B
:1038E000411AC0EE811ABCEEE11A81ED021A70BDD8
:1038F00000000000284402580090D0030000004659
:1039000000093D0040787D012DE9F0410446002585
:103910000026206800F00060B0F1006F30D1606ECA
:1039200048B1B0F5801F0DD0B0F5001F10D0B0F534
:10393000401F15D113E0F948006840F40030F74902
:1039400008600FE00221201D04F07CF8054609E024
:10395000022104F1240004F00DF9054602E001E023
:10396000012500BF00BF55B9EC482430006820F4A1
:103970004010616E0843E9492431086000E02E439D
:10398000208800F48070B0F5807F2DD1606D05280F
:103990001AD2DFE800F0030A10171800DF480068A9
:1039A00040F40030DD49086010E00021201D04F0E3
:1039B00049F805460AE0002104F1240004F0DAF891
:1039C000054603E002E001E0012500BF00BF55B954
:1039D000D2482430006820F00700616D0843CF49C9
:1039E0002431086000E02E43208800F40070B0F518
:1039F000007F33D1A06D802817D003DC40B1402870
:103A00001CD10CE0C02817D0B0F5807F16D114E08F
:103A1000C248006840F40030C049086010E000214E
:103A2000201D04F00FF805460AE0002104F12400EF
:103A300004F0A0F8054603E002E001E0012500BF24
:103A400000BF55B9B5482430006820F4E070A16D7E
:103A50000843B2492431086000E02E43208800F476
:103A60008060B0F5806F38D1D4F8A400B0F5800F35
:103A700019D004DC50B1B0F5001F1DD10DE0B0F538
:103A8000C00F17D0B0F5000F16D114E0A34800689E
:103A900040F40030A149086010E00021201D03F02F
:103AA000D1FF05460AE0002104F1240004F062F889
:103AB000054603E002E001E0012500BF00BF5DB95B
:103AC00096482C30006820F46000D4F8A410084315
:103AD00092492C31086000E02E43208800F40060F9
:103AE000B0F5006F38D1D4F8A800B0F1007F19D03C
:103AF00004DC50B1B0F1807F1DD10DE0B0F1407F0A
:103B000017D0B0F1806F16D114E08448006840F4FB
:103B100000308249086010E00021201D03F092FF70
:103B200005460AE0002104F1240004F023F80546CC
:103B300003E002E001E0012500BF00BF5DB9774866
:103B40002C30006820F0E060D4F8A81008437349D6
:103B50002C31086000E02E43206800F00070B0F1C6
:103B6000007F27D1A06CA0B1102804D0202809D054
:103B700030280FD10CE06948006840F400306749F4
:103B8000086009E00221201D03F05CFF054603E008
:103B900002E001E0012500BF00BF55B95F482030B9
:103BA000006820F03000A16C08435C4920310860B7
:103BB00000E02E43208800F48050B0F5805F36D1BD
:103BC000E06DB0F5005F19D004DC50B1B0F5805F56
:103BD0001DD10DE0B0F5405F17D0B0F5804F16D184
:103BE00014E04E48006840F400304C49086010E092
:103BF0000021201D03F026FF05460AE0002104F104
:103C0000240003F0B7FF054603E002E001E00125D0
:103C100000BF00BF55B941482430006820F4E0409F
:103C2000E16D08433D492431086000E02E432088BF
:103C300000F40050B0F5005F34D1206EB0F5403F85
:103C40001DD007DC68B1B0F5803F0BD0B0F5003F68
:103C500018D10DE0B0F5802F12D0B0F5A02F11D102
:103C60000FE011E00121201D03F0ECFE05460BE002
:103C7000012104F1240003F07DFF054604E003E088
:103C800002E001E0012500BF00BF55B92348243000
:103C9000006820F4E020216E0843204924310860A8
:103CA00000E02E43208800F48040B0F5804F38D1EA
:103CB000D4F8AC00B0F1405F1DD007DC68B1B0F1C2
:103CC000805F0BD0B0F1005F18D10DE0B0F1804FF4
:103CD00012D0B0F1A04F11D10FE011E00121201D51
:103CE00003F0B0FE05460BE0012104F1240003F0CF
:103CF00041FF054604E003E002E001E0012500BFCA
:103D000000BF6DB905482C30006820F0E040D4F8C1
:103D1000AC10084301492C31086002E02C440258E1
:103D20002E43208800F40040B0F5004F26D1E06E0D
:103D300098B1B0F1805F03D0B0F1005F0ED106E022
:103D4000FA48006840F40030F849086008E00121B2
:103D5000201D03F077FE054602E001E0012500BFCB
:103D600000BF55B9F1482430006820F04050E16EA2
:103D70000843EE492431086000E02E43206800F03B
:103D80008070B0F1807F27D1606CA0B1012804D091
:103D9000022809D003280FD10CE0E448006840F461
:103DA0000030E249086009E00221201D03F04AFECC
:103DB000054603E002E001E0012500BF00BF55B960
:103DC000DA482030006820F00300616C0843D749CE
:103DD0002031086000E02E43206800F48000B0F538
:103DE000800F7DD1D248006840F48070D0490860CF
:103DF000FFF760FA074606E0FFF75CFAC01B64288D
:103E000001D9032505E0CA48006800F48070002845
:103E1000F2D000BF8DBBC5484430006800F440704C
:103E2000B4F8B01001F44071884214D0BF48443057
:103E3000006820F44078BD484430006840F4803089
:103E4000BA49443108600846006820F480300860B0
:103E50000846C0F80080D4F8B000B0F5807F15D1D6
:103E6000FFF728FA074609E0FFF724FAC01B41F2E2
:103E70008831884202D9032507E038E0AB48443056
:103E80000068C0F340000028EED000BF4DBB00BF6B
:103E9000B4F8B00000F44070B0F5407F0ED1A348F4
:103EA0001C38006820F47C51A24AD4F8B0001040BD
:103EB00041EA10109D491C39086007E09B481C38F6
:103EC000006820F47C5099491C39086097484430B8
:103ED0000068B4F8B010C1F30B010843934901E046
:103EE00006E002E04431086002E02E4300E02E4389
:103EF000207800F0010068B3A06F182819D005DC05
:103F000048B1082808D0102816D10BE0202811D07D
:103F1000282811D10FE011E00121201D03F092FDAE
:103F200005460BE0012104F1240003F023FE0546C1
:103F300004E003E002E001E0012500BF00BF55B945
:103F40007A482830006820F03800A16F084377498C
:103F50002831086000E02E43207800F0020002289B
:103F600028D1606F062815D2DFE800F003040A119B
:103F7000121311E00121201D03F064FD05460BE042
:103F8000012104F1240003F0F5FD054604E003E0FF
:103F900002E001E0012500BF00BF55B963482830A9
:103FA000006820F00700616F08436049283108600D
:103FB00000E02E43207800F0040004282AD1D4F831
:103FC0009000062815D2DFE800F003040A1112134E
:103FD00011E00121201D03F035FD05460BE0012114
:103FE00004F1240003F0C6FD054604E003E002E00E
:103FF00001E0012500BF00BF5DB94C482C300068CE
:1040000020F00700D4F89010084348492C3108608C
:1040100000E02E43207800F02000202836D1D4F88C
:104020008C00B0F1405F1DD007DC68B1B0F1805F5B
:104030000BD0B0F1005F18D10DE0B0F1804F12D07D
:10404000B0F1A04F11D10FE011E00021201D03F0CD
:10405000F9FC05460BE0022104F1240003F08AFD7F
:10406000054604E003E002E001E0012500BF00BFD7
:104070005DB92E482830006820F0E040D4F88C105C
:1040800008432A492831086000E02E43207800F0D8
:104090004000402836D1D4F89800B0F5406F1DD0CC
:1040A00007DC68B1B0F5806F0BD0B0F5006F18D1A8
:1040B0000DE0B0F5805F12D0B0F5A05F11D10FE038
:1040C00011E00021201D03F0BDFC05460BE002219C
:1040D00004F1240003F04EFD054604E003E002E095
:1040E00001E0012500BF00BF5DB910482C30006819
:1040F00020F4E050D4F8981008430C492C310860A3
:1041000000E02E43207800F0800080283BD1D4F8D6
:104110009C00B0F5C04F24D00EDCA0B1B0F5005F1C
:1041200012D0B0F5804F1FD114E000002C4402588B
:1041300000480258FFFCFF0FB0F5004F12D0B0F559
:10414000204F11D10FE011E00021201D03F07AFC77
:1041500005460BE0022104F1240003F00BFD0546A7
:1041600004E003E002E001E0012500BF00BF4DB91B
:10417000B248006820F46040D4F89C100843AF496E
:10418000086000E02E43207800F00800082816D1CF
:10419000D4F88000B0F5805F06D1022104F124003C
:1041A00003F0E8FC06430AE0A448001F006820F47E
:1041B0004050D4F880100843A049091F08602078B7
:1041C00000F01000102814D1D4F89400B0F5807FCE
:1041D00006D1022104F1240003F0CCFC064308E0E0
:1041E0009648006820F44070D4F89410084393492E
:1041F0000860206800F40020B0F5002F26D1D4F824
:10420000A00030B1B0F5803F09D0B0F5003F0ED12D
:104210000CE00021201D03F015FC054609E00221F9
:1042200004F1240003F0A6FC054602E001E00125AC
:1042300000BF00BF4DB98148006820F44030D4F879
:10424000A01008437D49086000E02E43206800F478
:104250008020B0F5802F2DD1D4F88400B0F5801FD8
:1042600006D0B0F5001F0CD0B0F5401F11D10FE003
:1042700072482C38006840F4003070492C390860CE
:1042800009E0012104F1240003F074FC054602E07A
:1042900001E0012500BF00BF5DB96848001F00684C
:1042A00020F44010D4F8841008436449091F0860C2
:1042B00000E02E43206800F48030B0F5803F24D128
:1042C000E06C18B1B0F5803F0FD108E05B482C38A6
:1042D000006840F4003059492C39086007E0022199
:1042E000201D03F0AFFB054601E0012500BF00BF24
:1042F00055B952480C38006820F48030E16C08430E
:104300004E490C39086000E02E43206800F0005050
:10431000B0F1005F05D1022104F1240003F02AFC72
:104320000643206800F40030B0F5003F27D1E06F6D
:10433000A0B1B0F5807F06D0B0F5007F0CD0B0F50D
:10434000407F0CD109E03D482C38006840F4003033
:104350003A492C39086004E003E002E001E001255D
:1043600000BF00BF55B93548001F006820F44070F9
:10437000E16F08433149091F086000E02E432068BF
:1043800000F48010B0F5801F09D12C48083800686F
:1043900020F00040216F0843284908390860206850
:1043A00000F08050B0F1805F0AD12448483800689E
:1043B00020F48040D4F8B4100843204948390860FC
:1043C000206800F40010B0F5001F09D11B48083820
:1043D000006820F08070A16E084318490839086011
:1043E000206800F08040B0F1804F11D100BF134829
:1043F0004838006820F400401049483908600846F1
:104400000068D4F8B81008430C494839086000BF68
:10441000206800F00040B0F1004F09D107480C3887
:10442000006820F04050216D084304490C390860B1
:1044300016B90020BDE8F0810120FBE7584402587E
:1044400070B504460D4600268D48006800F0070050
:10445000A8420ED28A48006820F007002843884905
:1044600008600846006800F00700A84201D001205B
:1044700070BD207800F00200022807D18148006852
:1044800020F00F00E16808437E490860207800F0C2
:104490000100002851D07B48006820F47060A168BA
:1044A0000843784908606068022807D175481838C1
:1044B0000068C0F34040F8B90120D9E760680328DC
:1044C00007D1704818380068C0F34060A0B90120D7
:1044D000CEE76068012807D16A4818380068C0F341
:1044E000002048B90120C3E7664818380068C0F3C7
:1044F000800008B90120BBE762480838006820F056
:104500000700616808435F4908390860FEF7D2FE7A
:1045100006466068022811D108E0FEF7CBFE801B3A
:1045200041F28831884201D90320A1E75548083873
:10453000006800F038001028EFD13AE060680328E6
:1045400011D108E0FEF7B6FE801B41F288318842A7
:1045500001D903208CE74B480838006800F0380088
:104560001828EFD125E06068012811D108E0FEF796
:10457000A1FE801B41F28831884201D9032077E7F0
:1045800040480838006800F038000828EFD110E0F3
:1045900008E0FEF78FFE801B41F28831884201D986
:1045A000032065E737480838006800F03800002825
:1045B000EFD13348006800F00700A8420ED9304818
:1045C000006820F0070028432D490860084600686D
:1045D00000F00700A84201D0012049E7207800F050
:1045E0000400042807D12748006820F070002169E2
:1045F000084324490860207800F00800082809D101
:104600002048001D006820F07000616908431D49C2
:10461000091D0860207800F01000102809D1194801
:10462000001D006820F4E060A16908431549091DD8
:104630000860207800F02000202809D111480830B7
:10464000006820F07000E16908430E4908310860F5
:1046500000F066F80B49096801F470614FF480724C
:1046600092FAA2F2B2FA82F2D140074A515CC840F3
:10467000064908600F20FEF73DFE0020F8E6000026
:104680000020005218440258EA9E0008040000244A
:1046900010B5FEF7DBFE0949096801F00F010122A0
:1046A00092FAA2F2B2FA82F2D140054A515CC840B5
:1046B000044908600846006810BD0000184402580C
:1046C000EA9E00080800002410B5FFF7E1FF074943
:1046D000096801F07001102292FAA2F2B2FA82F295
:1046E000D140034A515CC84010BD00001C44025830
:1046F000EA9E000810B5FFF7CBFF0749096801F4EF
:10470000E0614FF4807292FAA2F2B2FA82F2D140E2
:10471000024A515CC84010BD1C440258EA9E000881
:1047200070B5012500EE905A0022012100230024DB
:10473000DFED861AB0EE610ADFED841AB0EE611A81
:104740000020834D2D6805F0380535B1082D15D0B2
:10475000102D15D0182D7CD114E07D4D103D2D6805
:10476000C5F3401545B17A4D103D2D68C5F3C1061E
:10477000784D25FA06F000E07648E5E07648E3E07B
:104780007648E1E0724D18352D6805F00302704D52
:1047900018352D68C5F305116D4D1C352D6805F0D4
:1047A00001036B4D24352D68C5F3CC0515FB03F5CE
:1047B00001EE905AF8EE611AB0EE610A22B1012AB8
:1047C0004FD0022A7DD16BE0614D103D2D68C5F3BD
:1047D00040152DB35E4D103D2D68C5F3C1065D4DEE
:1047E00025FA06F4B4FBF1F501EE905AB8EE612A11
:1047F000DFED5B1AC0EE212A554D20352D68C5F33B
:10480000080501EE905AF8EE611A72EEA11AF7EE61
:10481000002A71EEA21A62EE211AB0EE611A1FE0B0
:104820004C4DB5FBF1F501EE905AB8EE612ADFED83
:104830004C1AC0EE212A464D20352D68C5F30805D7
:1048400001EE905AF8EE611A72EEA11AF7EE002A04
:1048500000E077E071EEA21A62EE211AB0EE611A62
:104860005EE03D4DB5FBF1F501EE905AB8EE612AE0
:10487000DFED3B1AC0EE212A354D20352D68C5F3FA
:10488000080501EE905AF8EE611A72EEA11AF7EEE1
:10489000002A71EEA21A62EE211AB0EE611A3FE010
:1048A0002E4DB5FBF1F501EE905AB8EE612ADFED21
:1048B0002C1AC0EE212A264D20352D68C5F3080597
:1048C00000E00EE001EE905AF8EE611A72EEA11AC5
:1048D000F7EE002A71EEA21A62EE211AB0EE611A0A
:1048E0001EE01D4DB5FBF1F501EE905AF8EE612A80
:1048F000DFED1B1A80EE212A154D20352D68C5F3FA
:10490000080501EE905AF8EE611A72EE211AB7EE20
:10491000002A71EE821A62EEA11AB0EE611A00BF8F
:1049200000BF0B4D20352D68C5F346256D1C00EEEC
:10493000905AF8EE601A81EE212AFCEEC21A11EEAE
:10494000900A01E0044800BF00BF70BD00000000F5
:10495000104402580090D00300093D0040787D01CA
:104960000000004670B504460025207800F00100E4
:10497000002872D0F948006800F0380010280CD0E8
:10498000F648006800F03800182812D1F3481830B3
:10499000006800F0030002280BD1F04810380068CE
:1049A000C0F3404000286DD0606800286AD1012023
:1049B00070BD00BF6068B0F5803F08D1E74810388F
:1049C000006840F48030E549103908602EE06068E6
:1049D00068B9E2481038006820F48030DF491039A7
:1049E00008600846006820F4802008601EE06068C7
:1049F000B0F5A02F0DD1D9481038006840F48020C0
:104A0000D649103908600846006840F480300860D4
:104A10000CE0D2481038006820F48030CF491039BB
:104A200008600846006820F48020086000BF6068C5
:104A3000A0B1FEF73FFC054608E0FEF73BFC401B3B
:104A400041F28831884201D90320B1E7C3481038C8
:104A50000068C0F340400028EFD013E0FEF72AFCC6
:104A6000054608E0FEF726FC401B41F288318842EB
:104A700001D903209CE7B94810380068C0F34040D2
:104A80000028EFD1207800F00200022847D1B34877
:104A9000006800F0380058B1B048006800F03800F5
:104AA00018283ED1AD481830006800F00300B8BBAC
:104AB000AA4810380068C0F3800018B1E06808B94F
:104AC000012075E7A5481038006820F01900E1685A
:104AD0000843A24910390860FEF7ECFB054606E0E2
:104AE000FEF7E8FB401B022801D9032060E79B4842
:104AF00010380068C0F380000028F1D097480C38C7
:104B0000006820F47C304FF47C3292FAA2F2B2FAC0
:104B100082F221699140084390490C3908604AE0CB
:104B2000FFE7E06868B38D481038006820F019008E
:104B3000E1680843894910390860FEF7BBFB054668
:104B400006E0FEF7B7FB401B022801D903202FE740
:104B5000824810380068C0F380000028F1D07F48F8
:104B60000C38006820F47C304FF47C3292FAA2F2C8
:104B7000B2FA82F221699140084378490C39086001
:104B800019E076481038006820F0010073491039A8
:104B90000860FEF78FFB054606E0FEF78BFB401B27
:104BA000022801D9032003E76C4810380068C0F3DD
:104BB00080000028F1D1207800F01000102877D173
:104BC0006648006800F0380008280CD06348006888
:104BD00000F03800182823D160481830006800F031
:104BE000030001281CD15D4810380068C0F3002084
:104BF00020B1E069802801D00120D9E657480C385F
:104C0000006820F0F8404FF0F84292FAA2F2B2FAAF
:104C100082F2216A9140084350490C39086047E00C
:104C2000E06958B34D481038006840F080004B49A7
:104C300010390860FEF73EFB054606E0FEF73AFB3A
:104C4000401B022801D90320B2E64448103800680E
:104C5000C0F300200028F1D040480C38006820F054
:104C6000F8404FF0F84292FAA2F2B2FA82F2216AC8
:104C70009140084339490C39086019E03748103829
:104C8000006820F08000354910390860FEF712FBFB
:104C9000054606E0FEF70EFB401B022801D9032063
:104CA00086E62E4810380068C0F300200028F1D1B5
:104CB000207800F00800082836D16069D0B1274874
:104CC0006430006840F00100244964310860FEF758
:104CD000F1FA054606E0FEF7EDFA401B022801D97D
:104CE000032065E61D4864300068C0F340000028DA
:104CF000F1D019E019486430006820F0010017492C
:104D000064310860FEF7D6FA054606E0FEF7D2FAEF
:104D1000401B022801D903204AE61048643000688D
:104D2000C0F340000028F1D1207800F020002028B6
:104D300034D1A069D8B109481038006840F48050D7
:104D4000064910390860FEF7B5FA054608E0FEF797
:104D5000B1FA401B022803D9032029E61044025867
:104D6000AF480068C0F340300028F0D016E0AC48EF
:104D7000006820F48050AA490860FEF79BFA0546B7
:104D800006E0FEF797FA401B022801D903200FE640
:104D9000A3480068C0F340300028F2D1207800F02A
:104DA000040004287DD19F48006840F480709D492C
:104DB0000860FEF77FFA054606E0FEF77BFA401B27
:104DC000642801D90320F3E59648006800F4807058
:104DD0000028F2D000BFA068012808D190487030A8
:104DE000006840F001008E49703108602DE0A06835
:104DF00068B98B487030006820F001008849703134
:104E000008600846006820F0040008601DE0A06803
:104E100005280DD182487030006840F004008049B8
:104E2000703108600846006840F0010008600CE03E
:104E30007B487030006820F00100794970310860CB
:104E40000846006820F00400086000BFA068A0B118
:104E5000FEF730FA054608E0FEF72CFA401B41F257
:104E60008831884201D90320A2E56D48703000687E
:104E7000C0F340000028EFD013E0FEF71BFA054610
:104E800008E0FEF717FA401B41F28831884201D949
:104E900003208DE5624870300068C0F340000028B0
:104EA000EFD1606A00287CD05D481030006800F0C7
:104EB0003800182876D0606A022874D158480068F3
:104EC00020F0807056490860FEF7F4F9054606E0C8
:104ED000FEF7F0F9401B022801D9032068E550488D
:104EE0000068C0F340600028F2D100BFD4E90A1086
:104EF00041EA00104A492831096840F2F3329143EF
:104F00000843474928310860208E401EC0F308003E
:104F1000616B491E4FF47E4202EA41210843218F12
:104F2000491ED20102EA014108433C21095D491EA4
:104F3000120202EA0161084339493031086000BFBA
:104F4000081D00684FF6F87188434FF6F87292FA20
:104F5000A2F2B2FA82F2A16C914008433049343196
:104F600008602F482C30006820F00C00216C0843AA
:104F70002B492C3108600846006820F00200616C63
:104F8000084327492C3108600846006840F4803007
:104F900008600846006840F4003008600846006871
:104FA00002E03BE038E01FE040F480200860084663
:104FB000006840F0010008601948006840F0807007
:104FC00017490860FEF776F9054606E0FEF772F924
:104FD000401B022801D90320EAE411480068C0F30D
:104FE00040600028F2D019E00D48006820F0807081
:104FF0000B490860FEF75EF9054606E0FEF75AF930
:10500000401B022801D90320D2E405480068C0F300
:1050100040600028F2D101E00120C9E40020C7E48B
:105020000044025800480258042808D14FF0E021FB
:10503000096941F004014FF0E022116107E04FF0EF
:10504000E021096921F004014FF0E022116170476D
:1050500070B504462546681EB0F1807F01D301205B
:105060000FE0681E4FF0E02148610F214FF0FF3044
:1050700004F018FE00204FF0E0218861072008614D
:10508000002070BD7047704710B50446F64920688F
:1050900088427CD1207F012858D1F448007800F064
:1050A0008000002849D1F2480068082819DA042154
:1050B000F04801F07DFA401CEF49ED4A126821F8F2
:1050C00012000021EB4801F073FA401CEB49E84A5A
:1050D000126821F81200E6480068401CE4490860A4
:1050E00034E0E248007840F08000E049087000BFFA
:1050F000E0480068006A41F21111084068B9DD48D3
:105100000068006A8910084038B9DA4800680088E9
:1051100020F00100D7490968088000BFD548006821
:10512000C06820F00100D3490968C8600020D14957
:1051300009684862CE49086008E002F0FBFF01F010
:1051400007FFCF4801F054F801F02CFF207F022820
:1051500065D1CC48007800F0800000285FD1C948B4
:10516000007800F04000E8B30421C24801F020FAC2
:10517000C5490988401AC4490880C248007840F0EF
:105180008000C0490870BB480068C06800E0FFE0CC
:1051900020F00100B7490968C86000BFB548006841
:1051A000006A41F21111084068B9B2480068006A0B
:1051B0008910084038B9AF480068008820F0010025
:1051C000AC490968088000BF0020AA490968486204
:1051D000A8480068008840F00100A64909680880D6
:1051E000A44800E007E00068C06840F00100A14961
:1051F0000968C86013E0A348007880B90020A1497D
:105200000870A14908809F48007840F040009D49FF
:1052100008700421974801F0CBF99B490880207F52
:10522000042863D19948007800F0800000285DD1FF
:105230009648007800F04000E8B308218D4801F05E
:10524000B7F993490988401A914908808F48007836
:1052500040F080008D49087086480068C06820F0E2
:10526000010084490968C86000BF82480068006A7C
:1052700041F21111084068B97E480068006A89103F
:10528000084038B97B480068008820F0010079495F
:105290000968088000BF002076490968486275489F
:1052A0000068008840F00100724909680880714870
:1052B0000068C06800E005E040F001006D49096841
:1052C000C86013E07148007880B900206F49087009
:1052D0006F4908806D48007840F040006B490870C5
:1052E0000821644801F064F969490880207F082892
:1052F00063D16848007800F0800000285DD16548DF
:10530000007800F04000E8B30C215A4801F050F951
:1053100061490988401A604908805E48007840F079
:1053200080005C49087053480068C06820F00100A4
:1053300050490968C86000BF4E480068006A41F2E1
:105340001111084068B94B480068006A891008408C
:1053500038B948480068008820F0010045490968CC
:10536000088000BF0020434909684862414800683E
:10537000008840F001003F49096808803D48006806
:10538000C06800E005E040F001003A490968C860E3
:1053900013E04048007880B900203E4908703E493B
:1053A00008803C48007840F040003A4908700C21E1
:1053B000304801F0FDF838490880384920688842B3
:1053C00051D1207F01284DD13548007800F0800070
:1053D0000028F8D13248007800F04000F0B30021F6
:1053E000274801F0E5F82F490988401A2D4908801F
:1053F0002B48007840F080002949087000BF204801
:105400000068006A41F21111084068B91C48006840
:10541000006A8910084038B919480068008820F0EF
:10542000010017490968088000BF00201449096875
:10543000486213480068006A4FF6F5710840104949
:10544000096808620E480068006A0D490968086228
:105450000B480068008840F0010000E024E00849A3
:1054600009680880B2E0E0E200000140A0000024EA
:10547000CC0000245C030024B0030024C0030024FB
:1054800000030024A1000024A4000024A60000249E
:10549000AA000024AC000024B00000240004014055
:1054A000B2000024B6000024FE48007800F020007E
:1054B000E8B3FC48007840F04000FA490870002149
:1054C000F94801F075F8F9490988401AF749088048
:1054D00000BFF5480068006A41F21111084068B940
:1054E000F1480068006A8910084038B9EE48006841
:1054F000008820F00100EC490968088000BFEA48F4
:105500000068006A4FF6F5710840E74909680862CB
:10551000E5480068006AE44909680862E2480068F2
:10552000008840F00100E049096808804EE0FFE78C
:10553000DC480078F0BB0020DA490870DB490880BD
:10554000DB490880D748007840F02000D549087032
:105550000021D54801F02CF8D44908800021D24818
:1055600001F026F8D249088000BFCF480068006AE1
:1055700041F21111084068B9CB480068006A8910EF
:10558000084038B9C8480068008820F00100C649C2
:105590000968088000BFC4480068006A4FF6F571CA
:1055A0000840C14909680862BF480068006A40F0C5
:1055B000020000E00AE0BC4909680862BA480068D5
:1055C000008840F00100B84909680880207F02285F
:1055D0004DD1B848007800F080000028F8D1B548D7
:1055E000007800F04000E0B30421AF4800F0E0FF95
:1055F000B1490988401AB0490880AE48007840F0A7
:105600008000AC49087000BFA7480068006A41F2FA
:105610001111084068B9A4480068006A8910084060
:1056200038B9A1480068008820F001009E49096847
:10563000088000BF00209C49096848629A480068B9
:10564000006A4FF65F7108409749096808629648FA
:105650000068006A944909680862934800680088F5
:1056600000E005E040F001008F490968088091E002
:105670009048007800F02000E8B38E48007840F0B1
:1056800040008C4908700421874800F091FF8B4945
:105690000988401A8949088000BF83480068006A69
:1056A00041F21111084068B97F480068006A89100A
:1056B000084038B97C480068008820F001007A4929
:1056C0000968088000BF78480068006A4FF65F717B
:1056D000084075490968086273480068006A7249A1
:1056E0000968086270480068008840F001006E494F
:1056F000096808804EE0FFE76E480078F0BB0020A4
:105700006C4908706D4908806B49088069480078C9
:1057100040F02000674908700421634800F048FF0A
:10572000664908800421604800F042FF6249088011
:1057300000BF5D480068006A41F21111084068B975
:1057400059480068006A8910084038B9564800680E
:10575000008820F0010054490968088000BF5248C1
:105760000068006A4FF65F7108404F490968086297
:105770004D480068006A40F0200000E00AE04A4915
:105780000968086248480068008840F001004649FE
:1057900009680880207F04284DD14948007800F02E
:1057A00080000028F8D14648007800F04000E0B3BF
:1057B00008213D4800F0FCFE42490988401A414951
:1057C00008803F48007840F080003D49087000BFE5
:1057D00035480068006A41F21111084068B9324842
:1057E0000068006A8910084038B92F4800680088AE
:1057F00020F001002C490968088000BF00202A49D8
:105800000968486228480068006A4FF2FF51084062
:1058100025490968086224480068006A2249096825
:10582000086221480068008800E005E040F00100BF
:105830001D4909680880A7E02148007800F0200091
:1058400070B31F48007840F040001D4908700821DF
:10585000154800F0ADFE1C490988401A1A49088015
:1058600000BF11480068006A41F21111084068B990
:105870000D480068006A8910084038B90A48006875
:10588000008820F0010008490968088000BF064828
:105890000068006A4FF2FF5108400349096815E0AB
:1058A00024E00000B200002400030024B40000241F
:1058B000B6000024B8000024BC000024BA00002474
:1058C000BE000024C2000024C00000240862A148D9
:1058D0000068006A9F49096808629E48006800885D
:1058E00040F001009B49096808804DE09A48007823
:1058F000F0BB0020984908709849088098490880B2
:105900009548007840F0200093490870082191489C
:1059100000F04EFE9149088008218E4800F048FEB4
:105920008F49088000BF8B480068006A41F211115E
:10593000084068B987480068006A8910084038B98B
:1059400084480068008820F00100824909680880C6
:1059500000BF80480068006A4FF2FF5108407D494F
:10596000096808627B480068006A40F4007000E043
:105970000AE078490968086276480068008840F0C3
:105980000100744909680880207F08284DD17548B6
:10599000007800F080000028F8D17248007800F00C
:1059A0004000E0B30C216B4800F002FE6E4909880C
:1059B000401A6D4908806B48007840F080006949C2
:1059C000087000BF63480068006A41F21111084086
:1059D00068B960480068006A8910084038B95D48B5
:1059E0000068008820F001005A490968088000BF5B
:1059F000002058490968486256480068006A45F620
:105A0000FF71084053490968086252480068006AFB
:105A10005049096808624F480068008800E005E0C6
:105A200040F001004B490968088091E04D4800783A
:105A300000F02000E8B34B48007840F040004949AE
:105A400008700C21434800F0B3FD48490988401A0A
:105A50004649088000BF3F480068006A41F21111C2
:105A6000084068B93B480068006A8910084038B9A6
:105A700038480068008820F001003649096808802D
:105A800000BF34480068006A45F6FF71084031499C
:105A9000096808622F480068006A2E490968086290
:105AA0002C480068008840F001002A4909680880F5
:105AB0004EE0FFE72B480078F0BB00202949087032
:105AC0002A490880284908802648007840F02000AC
:105AD000244908700C211F4800F06AFD2349088002
